:020000040800F2
:10000000FCFF00200D340000C1320000C1320000AE
:10001000C1320000C1320000C1320000C132000014
:10002000C1320000C1320000C1320000C132000004
:10003000C1320000C1320000C1320000C1320000F4
:10004000C1320000C1320000C1320000C1320000E4
:10005000C1320000C1320000C1320000C1320000D4
:10006000C1320000C1320000C1320000C1320000C4
:10007000C1320000C1320000C1320000C1320000B4
:10008000C1320000C1320000C1320000C1320000A4
:10009000C1320000C1320000C1320000C132000094
:1000A000C1320000C1320000C1320000C132000084
:1000B000C1320000C1320000C1320000C132000074
:1000C000C1320000C1320000C1320000C132000064
:1000D000C1320000C1320000C1320000C132000054
:1000E000C1320000C1320000C1320000C132000044
:1000F000C1320000C1320000C1320000C132000034
:10010000C1320000C1320000C1320000C132000023
:10011000C1320000C1320000C1320000C132000013
:10012000C1320000C1320000C1320000C132000003
:10013000C1320000C1320000C1320000C1320000F3
:10014000C1320000C1320000C1320000C1320000E3
:1001500081B0194900EA0101084600220EE004209E
:1001600022E0082020E010201EE020201CE040209B
:100170001AE0802018E040F2001015E00F49884294
:10018000EDD00F498842ECD00E498842EBD00E49A1
:100190008842EAD00D498842E9D00D498842E8D02A
:1001A0000C498842E7D010460B49096841EA000231
:1001B00009490A6001B0704700FCFFFF00080140D8
:1001C000000C0140001001400014014000180140E3
:1001D000001C0140002001401810024081B000F2D4
:1001E00018010A68C2F3400181F00101C9B2C8B226
:1001F00001B0704781B000F214010A6800F21801E2
:100200000968090442EA0101084601B07047FFFF8E
:1002100081B0CDF800E08CB21546774B00EA0303BD
:100220001E461846FFF794FFB4F1FF0F0CD1734B35
:100230009D4203D14FF033333360D9E0422D03D1D7
:100240004FF044333360D3E04FF6FF739C4214D138
:100250006A4B9D4207D14FF033333360341D4FF06A
:1002600033332360C4E0422D07D14FF04433336071
:10027000341D4FF044332360BAE00021002005F024
:1002800001030BB100211DE005F0020333B105F4B9
:10029000C0730BB1082100E0042113E005F0040352
:1002A00033B105F020030BB1042100E0002109E087
:1002B00005F0080333B105F020030BB10C2100E079
:1002C0000821FFE74E4B05EA03030BB1032009E0C9
:1002D00005F400730BB1022004E005F480630BB158
:1002E0000120FFE705F00C030BB10143FFE704F029
:1002F000FF039BB2002B3BD0376800201FFA84F825
:1003000032462E4608282CD24FF0010303FA00F49F
:1003100008EA0403A34222D185004FF00F03AB404B
:10032000DB4307EA030401FA05F344EA03031D462D
:1003300006F48173B3F5817F05D102F214044FF006
:1003400001038340236006F08203822B05D102F271
:1003500010044FF00103834023602F46FFE7401C49
:10036000D0E717601FFA88F00F463146164602E0C4
:100370000F462946A0B2B0F1FF0F39D9331DD3F88B
:1003800000800022082A30D202F208044FF0010354
:1003900003FA04F400EA0403A34224D195004FF0C9
:1003A0000F03AB40DB4308EA030807FA05F348EA0A
:1003B000030801F48173B3F5817F07D106F21405B8
:1003C00002F208044FF00103A3402B6001F0820306
:1003D000822B07D106F2100502F208044FF0010348
:1003E000A3402B60FFE7521CCCE7331DC3F800800D
:1003F000DDF800E001B0704700FCFFFF14000800CA
:100400000008080001490860704700BF94012142BC
:1004100001490860704700BF8C0122420149086011
:10042000704700BFB001224201490860704700BF19
:10043000B081224201490860704700BFAC012242EE
:1004400001490860704700BFB88122420149086035
:10045000704700BFA801224201490860704700BFF1
:100460009C81214201490860704700BFB0012242CF
:1004700001490860704700BFAC0122420149086091
:10048000704700BF8001214201490860704700BFEA
:10049000A481224201490860704700BFA88122421E
:1004A00001490860704700BFA80122420149086065
:1004B000704700BFA081224201490860704700BF19
:1004C0009881214201490860704700BF9001214294
:1004D00001490860704700BFB481224201490860A9
:1004E000704700BF8801224281B0CDF800E00B4682
:1004F000FFF780FE00EA03029A4240F2000200D1B8
:100500000122D0B2DDF800E001B0704781B0CDF833
:1005100000E04FF000021949884207D118490B68E2
:1005200018490A6818490A601C460BE017498842B6
:1005300007D117490B6817490A6813490A601C4616
:1005400000E0144614490C6003461846FFF746FEC7
:1005500070B91149096851B12CB905200A4C2468B9
:10056000A047002005E0611E08460446FFE7ECE7CF
:100570000120DDF800E001B0704700BF00540040EA
:100580004800002064070020600700200058004059
:100590004C0000206807002050000020014800683F
:1005A000704700BF5C07002083B0CDF800E000F08A
:1005B000FF031A09104603F00F02134614E0194A0C
:1005C00002921FE0184A02921CE0184A029219E0B7
:1005D000174A029216E0174A029213E0164A029254
:1005E00010E0164A02920DE00028E8D00128E9D078
:1005F0000228EAD00328EBD00428ECD00528EDD05F
:100600000628EED0012212B29A40ADF804200298DA
:100610000A46BDF80410FFF7FBFDDDF800E003B06B
:10062000704700BF00080140000C0140001001406D
:100630000014014000180140001C0140002001404E
:1006400001490860704700BF9C8121420149086050
:10065000704700BF9881224201490860704700BF7F
:10066000B081224201490860704700BF9881214251
:1006700001490860704700BF9481224281B0CDF8E3
:1006800000E09300CB181B681C4682462046894632
:100690000FFA82F8B8F1000F10D0524601F0DCF9E1
:1006A000A8F101031BB20FFA83FB9B0009EB0303C4
:1006B0001A6801F03FF90FFA8BF8EBE7DDF800E07C
:1006C00001B0704781B00090BDF80220C2F3C7129C
:1006D0007E3A10B208807E23BDF8022063F3CE126A
:1006E000ADF80220009801B07047FFFF82B0CDF84E
:1006F00000E0019001A90968C90D01F0FF0109B2EC
:100700007F3909B208B200290EDA019A4FF00000D1
:1007100001F096FB40F2000000DD012008B1114815
:100720001CE04FF0000019E081B2182901D90198AE
:1007300014E0019800F0C2FE01F062FB0146019A4C
:1007400001F07EFB40F2000000DD012028B10846E8
:100750004FF07E5201F0CAFB00E00846DDF800E0F1
:1007600002B07047000080BF81B0FAB590EA02067F
:100770004CBF4FF000464FF00006010243001B0E35
:1007800012BF41F000414FF000003BE0FF2B35D09D
:100790005FEA02245FEA42055FEA156511BF44F093
:1007A00000444FF0FF4030432CE0FF2D26D05B1B70
:1007B0000020202764084908A14240EB000028BF20
:1007C000091B7F1E04D0002918BF4900F4D1B8408E
:1007D00010F0004F04BF4000B3F1010380302CBF84
:1007E0005B1C40007F33DCBF4FF000000AE0FF2BB2
:1007F00004D2400A40EAC350304303E0FF27FF051C
:1008000056EA0700BDE8FA4001B0704783B0CDF862
:1008100000E0ADF804100146BDF904000291BDF8F6
:100820000A20C2F3C712821810B212B2002A02DAEA
:100830004FF0000019E0B0F1FF0F0EDD4FF00000A7
:100840000A4601F0FDFA40F2000000DD012010B17F
:100850006FF4000009E0074807E083B2BDF80A2002
:1008600063F3CE12ADF80A200298DDF800E003B081
:10087000704700BFFFFF7F7F81B00168C1F3401068
:1008800001B0704781B00268C2F3401101B9FAE7C4
:10089000011D096888B201B07047FFFF81B001688F
:1008A000C1F3801001B0704782B0CDF800E0CFB244
:1008B00001469846029B4FF000064FF00005C44CDD
:1008C000A14207D1C34CD4F80090C34C2568C34C57
:1008D00025600BE0C24CA14207D1C24C2068C24C3B
:1008E0002568BE4C2560814600E0A946BF4CC4F88F
:1008F0000090F4E101F210057C00A4B244F0010480
:10090000A4B22C60019616464F46019A01F21404D7
:100910002568C5F3400464B9B44C246844B127B9D0
:100920000320AE4C2468A047E2E1781E0746FFE7AB
:10093000ECE700250C6865F38A240C6001F21404CE
:10094000206800BF01F218042468240440EA04046B
:100950002046012B05D101250C6865F349240C6064
:1009600004E001250C6865F308240C609F4C2568A1
:100970009146984637460E469D493046FFF7B4FDEE
:1009800068B99A4C24684CB125B90320934C24686B
:10099000A047ADE16C1E20460546FFE7ECE707EBFC
:1009A000090506F2100424682C70B8F1010F13D168
:1009B0008E4C216830460568C5F340245CB98B4CE9
:1009C00024683CB121B90320844C2468A0478FE1FE
:1009D000491EFFE7EFE712E0844C216830460568C6
:1009E000C5F300245CB9814C24683CB121B90320D3
:1009F0007A4C2468A0477BE1491EFFE7EFE777E1E7
:100A000001250C6865F38A240C6001250C6865F3E8
:100A1000CB240C6001F210057C00A4B244F0010468
:100A2000A4B22C604F4601F214042568C5F34004BB
:100A300064B96E4C246844B127B90320674C24681C
:100A4000A04755E1781E0746FFE7ECE701F21404E2
:100A5000206800BF01F21804246824042043002504
:100A60000C6865F38A240C60604C276801F214045A
:100A70002568C5F3800464B95C4C246844B127B987
:100A80000320564C2468A04732E1781E0746FFE752
:100A9000ECE7012B05D101250C6865F349240C60B6
:100AA00004E001250C6865F308240C60951901F237
:100AB000100424682C70741C151901F210042468A9
:100AC0002C70012B14D1494C22680D68C5F34024C9
:100AD00064B9464C246844B122B903203F4C2468D1
:100AE000A04705E1501E0246FFE7EEE7084613E087
:100AF0003E4C22680D68C5F3002464B93B4C246861
:100B000044B122B90320354C2468A047F0E0501EC0
:100B10000246FFE7EEE708460025046865F3CB24AC
:100B20000460E5E001250C6865F38A240C6001F29D
:100B300010057C00A4B244F00104A4B22C60464627
:100B4000C846894617461D462A494846FFF7CCFC49
:100B500078B9264C24685CB1B8F1000F04D10320A9
:100B60001E4C2468A047C3E0A8F101008046FFE7BF
:100B7000EAE70021A8464A46B1463B46A9F10304EC
:100B8000A14222D2194C25688A4617461E461849AA
:100B90003846FFF7A9FC60B9144C246844B125B964
:100BA00003200E4C2468A047A2E0681E0546FFE71C
:100BB000EDE706EB0A0507F2100424682C700AF131
:100BC0000104214633463A46D8E7084C00F014B8F1
:100BD0000054004048000020640700206007002007
:100BE000005800404C000020680700205000002002
:100BF0004000030002000300276801930B461646DD
:100C00004246019906F214042568C5F3800464B9CC
:100C1000394C246844B127B90320384C2468A047D4
:100C200066E0781E0746FFE7ECE70025346865F3C9
:100C30008A243460CD1806F2100424682C70581CE5
:100C40002D4C23681746024606F214042568C5F3A6
:100C5000800464B9284C246844B123B90320274C8C
:100C60002468A04744E0581E0346FFE7ECE7012F45
:100C700007D10125346865F34924346010463246B3
:100C800021E00125346865F3082434601A4CD4F857
:100C9000008017460D461A493046FFF725FC78B903
:100CA000154C24685CB1B8F1000F04D10320134C3B
:100CB0002468A0471CE0A8F101008046FFE7EAE7AE
:100CC0002946324638460D1802F2100424682C706A
:100CD000441C0D1902F2100424682C7008E0B8F1CD
:100CE000010F3FF407AEB8F1020F3FF489AE19E7E8
:100CF000DDF800E002B070475000002060070020DF
:100D00000100030082B0CDF800E0029E4FF0000524
:100D1000564CA04206D1564C2768564C2568564C76
:100D200025600AE0554CA04206D1554C2768554C29
:100D30002568514C256000E02F46534C276000F297
:100D400010054C00A4B22C60B946074690463546C3
:100D50001E464E493846FFF7C7FB88B94A4C2468FF
:100D60006CB1B9F1000F06D10420434C2468A047B0
:100D70004FF6FF7076E0A9F101008146FFE7E8E752
:100D80000020019729463746019E7C1EA04226D2AC
:100D900006F2100508EB000424782C603A4CD4F8D5
:100DA000009082460D463A493046FFF79DFB88B9D0
:100DB000354C24686CB1B9F1000F06D104202E4CDB
:100DC0002468A0474FF6FF704CE0A9F1010081466E
:100DD000FFE7E8E70AF1010420462946D5E706F2D5
:100DE000100508EB000424782C60274C27680D467A
:100DF00028493046FFF778FB70B9234C246854B17A
:100E000037B904201C4C2468A0474FF6FF7029E036
:100E1000781E0746FFE7EBE7012D05D10125346871
:100E200065F3492434601CE00125346865F3082427
:100E30003460154C2768354617492846FFF754FBA0
:100E400078B9114C24685CB137B904200A4C246885
:100E5000A0474FF6FF7005E07C1E20460746FFE7DF
:100E6000EAE70020DDF800E002B0704700540040DF
:100E70004800002064070020600700200058004060
:100E80004C0000206807002050000020820007006E
:100E900080000700840007000100030082B0CDF845
:100EA00000E0034619460191FFF778FB40F2E83174
:100EB00000FB01F201990A601F490978C1F303118F
:100EC000C8B21E4909180878C0B21A1D1968C14075
:100ED000116019490988C1F3022188B2174909181C
:100EE0000878C0B203F20802191D0968C1401160F8
:100EF00011490988C1F3C22188B21049091808783C
:100F0000C0B203F20C02191D0968C14011600A4900
:100F10000988C1F3813188B2094909180978C8B232
:100F200003F2100203F20C010968B1FBF0F1116049
:100F3000DDF800E002B0704704100240D036000037
:100F4000F836000081B0CDF800E0012252B23E49EF
:100F50000A6000F268010B686FF0006103EA0102A9
:100F6000144603F00061C90E0B4602F00041B1F1D6
:100F7000004F02D135490A6801E035490A6804F496
:100F80007021090C0E464FF6FF7104EA01010D466F
:100F900004F44011B1F5401F0DD16FF0706102EA09
:100FA00001010E462A490A686FF070610A4028491B
:100FB0000A60324616E004F48011B1F5801F09D1B1
:100FC0004FF00301B140C94302EA010141F07061F1
:100FD0000A4607E0610D090105FA01F1C9430A401B
:100FE00042F070622BB1610D090105FA01F10A436B
:100FF000FFE704F00041B1F1004F02D113490A604C
:1010000001E013490A6040F2000A81464FEA8A0172
:1010100009EB01010968B1F1FF3F10D009F134017A
:101020004FEA8A03C91809680A4609EB03010968EF
:1010300008461146FFF7B8FA0AF1010AE6E7DDF8BB
:1010400000E001B0704700BF000342421C000140B5
:101050000400014083B0CDF800E003464FF00000EB
:1010600026498B4206D126490C6826490A6826493A
:101070000A600BE025498B4207D1254908682549BC
:101080000A6821490A60044600E0044622490C60CF
:10109000019402931846FFF739FA029B019C10B99C
:1010A0004FF6FF7025E00122196862F308211960EC
:1010B00003F214010A68C2F3402111B14FF6FF7028
:1010C00017E025461C4615492046FFF70DFA78B96A
:1010D0001149096859B135B906200B4C2468A0475D
:1010E0004FF6FF7005E0691E08460546FFE7EAE790
:1010F0000020DDF800E003B0704700BF005400405E
:1011000048000020640700206007002000580040CD
:101110004C00002068070020500000200100030060
:1011200081B0CDF800E00348FFF7ACFBDDF800E04C
:1011300001B070470048004081B0CDF800E003489E
:10114000FFF7ACFBDDF800E001B070470044004061
:1011500081B0CDF800E00348FFF7A0FBDDF800E028
:1011600001B070470048004081B0CDF800E003486E
:10117000FFF782FBDDF800E001B070470048004057
:1011800088B0CDF800E00E46554B98420DD10124B1
:1011900064B2544B1C60544C544B1C60544C554B23
:1011A0001C60554C554B1C600FE0554B98420CD1C0
:1011B000012464B2534B1C60534C4C4B1C60534C89
:1011C0004C4B1C60524C4D4B1C60019602901046DB
:1011D000FFF7B8FE0298019E031D1B689CB26FF0DA
:1011E0003F0304EA03039DB203AB01901846FFF7E7
:1011F00055FE0198059F059C464BB4FBF3F399B24D
:101200009BB245EA0304A4B2031D1C6000240368DA
:1012100064F30003036000223F4B9E4212D8730028
:10122000B7FBF3F4A4B2042C02D204231C46FFE75C
:1012300042EA04039AB200F220044B1C9BB22360E2
:1012400091B23FE0032306FB03F4B7FBF4F31FFA6C
:1012500083F8192306FB03F5B7FBF5F31FFA83F9AF
:1012600008FB04F409FB05F33C1BFB1A9C4205D266
:1012700003237343B7FBF3F4A4B206E019237343CB
:10128000B7FBF3F4A4B244F4804440F6FF7304EADD
:10129000030313B944F00104FFE744F400439BB295
:1012A0001A4392B200F2200540F22C1301FB03F422
:1012B000A4B240F2E833B4FBF3F39BB25B1C9BB2E5
:1012C0002B6091B200F21C0319600023036001241B
:1012D000036864F300030360DDF800E008B07047C2
:1012E00000540040D4034242451700006C07002020
:1012F000C513000070070020A11300007407002030
:1013000000580040D8034242611800000914000050
:101310007D13000040420F00A086010081B0CDF88F
:1013200000E00348FFF7BAFADDF800E001B07047CB
:101330000038014081B0CDF800E00348FFF79CFA87
:10134000DDF800E001B070470044004081B0CDF806
:1013500000E00348FFF796FADDF800E001B07047BF
:101360000044004081B0CDF800E00348FFF78AFA5E
:10137000DDF800E001B07047004C004081B0CDF8CE
:1013800000E008B413460A46C1B20448FFF7BAFCAD
:1013900001B0DDF800E001B0704700BF0058004028
:1013A00081B0CDF800E008B413460A46C1B2044843
:1013B000FFF7A8FC01B0DDF800E001B0704700BF06
:1013C0000054004081B0CDF800E008B413460A464E
:1013D000C1B20448FFF768FA01B0DDF800E001B0DF
:1013E000704700BF0054004081B0ADF800100146C6
:1013F000BDF800000B68C3F3C01202B9FAE70A1D7A
:10140000106001B07047FFFF81B0CDF800E008B474
:1014100013460A46C1B20448FFF746FA01B0DDF8A8
:1014200000E001B0704700BF0058004081B0CDF827
:1014300000E00348FFF732FADDF800E001B0704742
:10144000004C004081B0CDF800E00348FFF714FAEB
:10145000DDF800E001B07047004C004081B0CDF8ED
:1014600000E00348FFF70EFADDF800E001B0704736
:101470000050004081B0CDF800E00348FFF70EFABD
:10148000DDF800E001B070470050004081B0CDF8B9
:1014900000E00348FFF7F0F9DDF800E001B0704725
:1014A0000050004081B0CDF800E00348FFF7E4F9B8
:1014B000DDF800E001B070470038014081B006B5AA
:1014C0004FEA40024FEA12627F3A44BF4FF00000F9
:1014D00011E0D2F11F0209D94FEA002141F0004189
:1014E000D14000284CBF4842084604E000284FF095
:1014F000004058BF401EBDE8064001B07047FFFFE6
:1015000089B0CDF800E0834698B28C46BDF824102F
:101510000A9E04ACADF80410ADF808002046FFF7B1
:10152000BDFCBDF80800BDF80410644CA34512D101
:1015300001256DB2624C2560624D634C2560634DA0
:10154000634C2560634D644C2560644D644C25609C
:10155000079C039456E0634CA34512D101256DB25C
:10156000614C2560614D584C2560614D584C25609B
:10157000604D594C2560604D594C2560069C039484
:1015800040E05E4CA34512D101256DB25C4C256054
:101590005C4D4D4C25605C4D4D4C25605B4D4E4C7B
:1015A00025605B4D4E4C2560069C03942AE0594C07
:1015B000A34512D101256DB2574C2560574D424CC1
:1015C0002560574D424C2560564D434C2560564D85
:1015D000434C2560069C039414E0544CA34511D160
:1015E00001256DB2524C2560524D374C2560524D4D
:1015F000374C2560514D384C2560514D384C256095
:10160000069C0394ADF80410ADF808003046FFF7CF
:1016100099FCBDF80800BDF804100BF1100500247A
:101620002C600BF110052C680C432C600BF10C05A1
:1016300000242C6018B140F4806080B2FFE70BF109
:101640000C052C6804432C600BF10C060125346852
:1016500065F34D3434600BF10C060125346865F3F5
:10166000C30434600BF10C060125346865F3820471
:1016700034600BF1140500242C60039D192465438C
:101680004FEA8C04B5FBF4F76424B7FBF4F42601AD
:10169000350964246C433C1B240104F232056424A4
:1016A000B5FBF4F404F00F0446EA04040BF108055A
:1016B000A4B22C60DDF800E009B0704700380140AA
:1016C00038034242C51B000078070020791800004B
:1016D0007C070020A5140000800700201D130000D7
:1016E0008407002000440040C4034242E11B000084
:1016F0004D13000035130000391100000048004070
:10170000C8034242111B00002111000069110000B2
:1017100051110000004C0040CC0342422D1B000040
:1017200065130000451400002D1400000050004017
:10173000D0034242491B00005D1400008D140000DC
:101740007514000081B0CDF800E00348FFF782FC7B
:10175000DDF800E001B070470054004084B0CDF8DF
:1017600000E002464FF00000019200F069FB40F2F9
:10177000000000D10120019A10B14FF07E5060E0CE
:101780003248019200F05CFB40F2000000DA0120D8
:10179000019A08B12E4854E02E48019200F050FB07
:1017A00040F2000000DD0120019A10B14FF000006E
:1017B00047E04FF00000019200F042FB40F20000D1
:1017C00000DD0120019A5FFA80FCC1B221B182F0F4
:1017D00000410846014600E011461F480A4600F055
:1017E0003BF98146FEF782FFFFF768FE00B2ADF8D5
:1017F000080000F005FB0390039A484600F076FBD2
:1018000040F2090212B21549FEF738FFBDF908107F
:10181000FEF7FCFF0146BCF1000F11D00C480A4650
:1018200000F00EFB40F2000000D1012010B14FF09B
:10183000000006E04FF07E500A46FEF795FF00E0FC
:101840000846DDF800E004B0704700BFFED4B242A5
:10185000FFFF7F7F50ACAEC23BAAB83F843600008A
:1018600081B0CDF800E00348FFF7F4FBDDF800E0BD
:1018700001B070470058004081B0CDF800E0034847
:10188000FFF700F8DDF800E001B0704700380140D4
:1018900082B0CDF800E003464FF000001A4600F099
:1018A000CFFA40F2000000DB012010B14FF0000041
:1018B00021E001A91846FEF705FF4FF0804200F035
:1018C000CBF84FF07E5200F011FBBDF90410491E19
:1018D000ADF8041040F2080212B20949FEF7CEFE3C
:1018E0008046BDF9040000F08BFA064A00F0B4F817
:1018F000424600F01FF8DDF800E002B0704700BF7C
:10190000AC3600001872313F81B0002808BF0FE0EC
:1019100002B54FF09E0202D4521E4000FCD580302A
:101920002CBF521C4000400A40EAC250BDE80240B1
:1019300001B0704781B02DE9FA414FEA02244FEA25
:1019400042052D0E04D1002C18BF4FF000006CE0B2
:1019500044F00044FF2D5FD04FEA9404002A48BFB2
:1019600064424FEA00214FEA40031B0E05D10029D3
:1019700014BF4FF00000104657E041F00041FF2B2C
:101980004BD04FEA9101002848BF49425E1B41BF3E
:101990000F4621463C46764248BF2B46192E47BF8C
:1019A00044FA06F7C9194FF0000803E0C6F11C0716
:1019B00004FA07F8002904BF4FF0000035E046BFE5
:1019C00049424FF001074FF00007A3F1010349001E
:1019D000FBD511F080040DD001F0200548EA050880
:1019E000803128BF5B1C01F0400458EA040808BF9E
:1019F00021F480719B1CDCBF4FF0000015E0FF2B31
:101A00000DD221F0FF014FEA41014FEA512040EA97
:101A1000C35040EAC77008E010464FEAD0774FEA5B
:101A2000C777FF204FEAC0503843BDE8FA4101B004
:101A30007047FFFF82B0CDF800E040F20004ADF83F
:101A40000440044C2468A047BDF90400DDF800E020
:101A500002B070475407002081B0FAB590EA020640
:101A60004CBF4FF000464FF000064FEA00214FEA0E
:101A700040031B0E12BF41F000414FF000002CE06C
:101A8000FF2B26D04FEA02244FEA42052D0E12BF4B
:101A900044F000444FF000001FE0FF2D19D05B1907
:101AA000A1FB0454002C5CBF64005B1E803424BF87
:101AB0005B1C64087E3BDCBF4FF000000DE0FF2B99
:101AC00007D24FEA142030F4000040EAC3503043FC
:101AD00003E0FF27FF0546EA0700BDE8FA4001B032
:101AE0007047FFFF82B0CDF800E040F20004ADF88F
:101AF0000440064C2468A047BDF9041041EA0000E8
:101B000000B2DDF800E002B0704700BF58070020C7
:101B100081B0CDF800E081B20348FFF765FCDDF845
:101B200000E001B0704700BF0048004081B0CDF830
:101B300000E081B20348FFF757FCDDF800E001B098
:101B4000704700BF004C004081B0CDF800E081B28A
:101B50000348FFF749FCDDF800E001B0704700BF23
:101B60000050004083B0CDF800E00DF106020220E5
:101B70001070511C92200870911C00200870D11C1C
:101B800001200870FFF7AEFF0DF106010C48007848
:101B90000023042200F096F901A9094800780123E6
:101BA0000222FFF747FF01AA501C0078010289B208
:101BB000107841EA0000DDF800E003B0704700BF94
:101BC0004700002081B0CDF800E081B20348FFF764
:101BD0000BFCDDF800E001B0704700BF00380140A9
:101BE00081B0CDF800E081B20348FFF7FDFBDDF8DE
:101BF00000E001B0704700BF0044004081B0CDF864
:101C000000E0019D2C4610B408B493B28AB201469C
:101C10000348FFF775FC02B0DDF800E001B0704743
:101C20000038014082B0CDF800E080464FF000005F
:101C3000424600F005F940F2000000DB012010B13F
:101C40004FF0000055E041464FF07E50424600F014
:101C5000F7F840F2000000DD012038B14FF07E506F
:101C60000A46FEF781FD0146084600E0084601A944
:101C7000FEF728FDBDF90420022109B292FBF1F123
:101C8000FEF7C4FD01464FF07E50424600F0D8F802
:101C900040F2000000DD012038B14FF07E500A46CE
:101CA000FEF762FD01468B4600E08B4640F2140AC7
:101CB000C146FFE75A464846FEF756FD5A46FFF72B
:101CC00039FE4FF08042FEF74FFD01465A4600F0C4
:101CD000B7F840F2000000D1012008B1584608E0F2
:101CE0008B46AAF1010189B21FFA81FA0029E1D1DC
:101CF0005846DDF800E002B07047FFFF81B0CDF834
:101D000000E0019D2C4610B408B493B28AB201469B
:101D10000348FFF7F5FB02B0DDF800E001B07047C3
:101D20000048004081B0CDF800E0019D2C4610B481
:101D300008B493B28AB201460348FFF7E1FB02B050
:101D4000DDF800E001B070470044004084B0CDF8F9
:101D500000E00391014600228DF80820039A4FF01D
:101D6000000000F06DF840F2000000D1012010B139
:101D70004FF07E503FE04FF000000A4600F060F860
:101D800040F2000000D1012010B14FF0000032E01D
:101D90004FF000000A4600F053F840F2000000DD6A
:101DA0000120C8B101910398FFF788FB034600F0BA
:101DB00027F80199039A00F043F840F2000000D0A0
:101DC000012010B14FF0000015E003F001028DF882
:101DD000082081F0004000E00846FFF759FD039A13
:101DE000FFF73AFEFFF7BAFC9DF808201AB180F021
:101DF00000421046FFE7DDF800E004B07047FFFF47
:101E000081B0002808BF19E006B554BF0146D0F1E3
:101E100000014FF09E0202D4521E4900FCD58031D1
:101E20002CBF521C49004FEA512141EAC2510028FF
:101E30004CBF41F000400846BDE8064001B0704785
:101E400081B010B5904208BF2AE040EA02044FEA90
:101E50004404002C08BF23E0440004D1944201D480
:101E6000A41C012C1CE04FEA40044FEA1464FF2C30
:101E70000AD14FEA42044FEA1464FF2C04D14FEA1E
:101E8000D274B4EBD0340BE0002A06D4002802DC74
:101E90000024012C04E0904202E0002848BF824266
:101EA000BDE8104001B0704781B0CDF800E00A46AF
:101EB00001460348FFF764F9DDF800E001B0704720
:101EC0000054004082B0CDF800E040F20004ADF8CC
:101ED0000440054C2468A047BDF90440044320B2E7
:101EE000DDF800E002B070475007002081B082F0BA
:101EF00000422DE9FA414FEA02244FEA42052D0E35
:101F000004D1002C18BF4FF000006CE044F00044F6
:101F1000FF2D5FD04FEA9404002A48BF64424FEA85
:101F200000214FEA40031B0E05D1002914BF4FF0DA
:101F30000000104657E041F00041FF2B4BD04FEA24
:101F40009101002848BF49425E1B41BF0F46214610
:101F50003C46764248BF2B46192E47BF44FA06F747
:101F6000C9194FF0000803E0C6F11C0704FA07F88E
:101F7000002904BF4FF0000035E046BF49424FF052
:101F800001074FF00007A3F101034900FBD511F051
:101F900080040DD001F0200548EA0508803128BFF3
:101FA0005B1C01F0400458EA040808BF21F480716A
:101FB0009B1CDCBF4FF0000015E0FF2B0DD221F081
:101FC000FF014FEA41014FEA512040EAC35040EA85
:101FD000C77008E010464FEAD0774FEAC777FF2076
:101FE0004FEAC0503843BDE8FA4101B07047FFFFE7
:101FF00083B0CDF800E00DF1060202201070511CF4
:1020000040200870911C00200870D11C012008702D
:10201000FFF768FD0DF106010C480078002304224B
:10202000FFF750FF01A90948007801230222FFF7BA
:1020300001FD01AA501C0078010289B21078014309
:1020400003480180DDF800E003B07047470000203E
:102050003E0700208DB0CDF800E0BC4800780102BA
:1020600009B2BB480078081800B2FFF7C9FE4FF06C
:102070008E42FEF779FBB7490860B7480078010245
:1020800009B2B64800780918B5480180B54800780B
:10209000010209B2B44800780818ADF82800B34826
:1020A0000078FFF731FC01464FF08040FFF74EFE0D
:1020B0000990AF48B0F90000C0F1030000B2FFF78B
:1020C0009FFE01464FF08040FFF740FE099AFFF760
:1020D000C3FCBDF92810099008B2FFF791FE099AD8
:1020E000FEF742FBA3490860A34A107800F0F00015
:1020F000C0B20111A14801801046007800F00F0124
:102100009F4801809F480078FFF7FEFB4FF0874211
:10211000FFF7A2FC09909C480078FFF7F5FB099AAD
:10212000FFF708FC994908609148B0F90000C0F138
:10213000030000B2FFF764FE01464FF08040FFF756
:1021400005FE0690069A914809900068FEF70CFB80
:10215000099908608E480078FFF7D6FB8D49086022
:102160008748B0F90000FFF74BFE01464FF0804072
:10217000FFF7ECFD09907E48B0F90000C0F10300C4
:1021800000B2FFF73DFE01464FF08040FFF7DEFD55
:10219000099AFFF761FC0590059A7E480A9000684D
:1021A000FEF7E2FA0A9908607B480078FFF7ACFB7B
:1021B0007A49099108604FF08442FEF7D5FA0999EF
:1021C00008607748B0F90000FFF71AFE09907548DB
:1021D0000068754AFFF78AFE0A990A68FFF73CFC17
:1021E0006A490A68FFF7A6FB0590059A0998FFF768
:1021F0007DFE02900020ADF80400BDF804004028E8
:1022000080F0A981BDF804008100684840180B9057
:102210005348B0F90000FFF7F3FD0A90BDF8041031
:102220006348401809905548B0F90000FFF7E8FDF1
:1022300001464FF08040FFF789FD09990990087821
:10224000FFF762FB099AFFF707FC0A9AFFF772FB98
:1022500009904748B0F90000C0F1030000B2FFF751
:10226000CFFD01464FF08040FFF770FD0590059AC5
:102270000998FEF779FA0B990860BDF8040081000F
:102280004C4840180990BDF8040000F2400189B2A2
:10229000474840180078FFF737FB09990860BDF8F8
:1022A000040081004348401802684348FFF7C8FD16
:1022B00040F2000000DA012060B1BDF804008100A6
:1022C0003C484018099000684FF08742FFF70EFE27
:1022D00009990860BDF804008100364840180B9049
:1022E00000680A902648B0F90000FFF789FD014612
:1022F0004FF08040FFF72AFD09901D48B0F900001B
:10230000C0F1030000B2FFF77BFD01464FF08040B3
:10231000FFF71CFD099AFFF79FFB0590059A0A98A5
:10232000FEF722FA0B990860BDF80400410023482B
:102330004018B0F90000ADF83000BDF8040081008D
:102340000B911A48401800680A9039E08503002074
:10235000840300209C0200207103002070030020F1
:102360009A010020770300207603002082030020DA
:10237000A4030020A003002079030020A60300206E
:10238000A80300207403002073030020AC03002086
:1023900075030020B003002078030020B403002060
:1023A00098010020B80300200000C841BC030020B1
:1023B000A0020020BC0400200000FE42BC0500205A
:1023C00067484018099067480068674AFFF78EFD24
:1023D00009990A68FFF740FB0A9AFFF7ABFABDF9C3
:1023E0003010099008B2FFF70BFD099AFFF77EFD48
:1023F0008046029A5D480068FFF72EFB0590059A1B
:102400004046FFF773FD039059490B9808180A904E
:1024100058480078010209B2574800780818ADF80A
:10242000240056480078FFF76FFA01464FF08040CD
:10243000FFF78CFCBDF92410099008B2FFF7E0FC0F
:10244000099AFEF791F90A990860BDF80400810025
:10245000474840180A90BDF8040000F2800189B294
:102460004748401800788DF8240046480078FFF768
:102470004BFA01464FF08040FFF768FC9DF82410AE
:102480000990C8B2FFF740FA099AFEF76DF90A9968
:102490000A68FFF74FFA0A990860BDF80400810046
:1024A000334840180A90006809903748B0F9000096
:1024B000C0F1030000B2FFF7A3FC01464FF08040DB
:1024C000FFF744FC0590059A0998FEF74DF90A9923
:1024D0000860BDF8040081000A9125484018006892
:1024E00009902A48026821480068FFF7B5FA05906C
:1024F000059A0998FFF7FAFC0590059A0398FEF7EC
:1025000033F923490A68FEF72FF9049021490A9804
:1025100008180990134802681F48FFF70BFA4FF09C
:102520008141FFF713FC049AFFF704FAFFF7B0F9B3
:102530004FF08142FEF718F9FFF710F90590059A60
:102540001648FFF7D3FC09990860BDF80400401C49
:10255000ADF8040051E6DDF800E00DB0704700BFB3
:10256000BC040020B80300200000C841B4030020D0
:102570003C0600208103002080030020820300200D
:10258000A002002083030020A4030020A003002059
:102590009C0200209C0100203393884300C0A44388
:1025A00081B00091014600980B461C465A1C154606
:1025B0000346421C10461A78227022780AB12B4634
:1025C000F3E7084601B0704781B00B460146184654
:1025D0000D4614B2531E1AB224B103782B706D1C31
:1025E000401CF6E7084601B07047FFFFA2B0CDF8E7
:1025F00000E001AA02201070511C00200870911CFC
:1026000001200870D11C40200870FFF76BFA01A967
:102610001D48007800230422FFF754FC02A91A4841
:10262000007801238022FFF705FA0024402C26D2EF
:10263000610016484118002000B20880610013486C
:10264000421808B2401C00B202AB18180178B2F967
:1026500000000843108061000C484118B1F90000E7
:102660000002088061000948421808B21818017871
:10267000B2F9000008431080641CE4B2D6E7DDF82C
:1026800000E022B0704700BF47000020BC050020DA
:1026900086B0CDF800E0964A107800F0F000C0B2A5
:1026A0000111944801801046007800F00F00C0B27C
:1026B00000F20A019048018090480078FFF724F961
:1026C0004FF08742FFF7C8F902908D480078FFF776
:1026D0001BF9029AFFF72EF98A4908604FF08E42E3
:1026E000FFF7AEFB40F2000000DB012040B185485F
:1026F000029000684FF08F42FFF7F8FB02990860E4
:102700008148B0F90000C0F1030000B2FFF778FB88
:1027100001464FF08040FFF719FB03907948029083
:102720000068019103990A46FEF71EF80199029983
:10273000086076480078FFF7E7F84FF08742FFF728
:102740008BF9029072480078FFF7DEF8029AFFF7E3
:10275000F1F8704908604FF08E42FFF771FB40F2CC
:10276000000000DB012040B16A48029000684FF091
:102770008F42FFF7BBFB029908605E48B0F900008A
:10278000FFF73EFB01464FF08040FFF7DFFA029073
:102790005D48B0F90000C0F1030000B2FFF730FB64
:1027A00001464FF08040FFF7D1FA029AFFF754F943
:1027B0000390584802900068019103990A46FDF77A
:1027C000D3FF01990299086053480078FFF79CF8FD
:1027D0004FF08742FFF740F9029050480078FFF72A
:1027E00093F8029AFFF7A6F84D4908604FF08E4221
:1027F000FFF726FB40F2000000DB012040B1484813
:10280000029000684FF08F42FFF770FB029908605A
:102810003948B0F90000FFF7F3FA01464FF0804065
:10282000FFF794FA02903848B0F90000C0F10300B5
:1028300000B2FFF7E5FA01464FF08040FFF786FA55
:10284000029AFFF709F90390354802900068019158
:1028500003990A46FDF788FF0199029908602D49FE
:10286000086880F000400590084600684FF08041FD
:10287000FFF76CFA04902A4802684FF08140FFF796
:10288000EBF803902748B0F90000FFF7B9FA02907F
:102890001C480068019102990A46FFF727FB01993D
:1028A000039AFFF7D9F802900498019102990A4619
:1028B000FFF71CFB0199FFF7B5F9059AFFF73AF806
:1028C0000390174802684FF08040FFF7C5F8029068
:1028D0000398019102990A46FDF746FF0199124AB1
:1028E000FFF728F811490860DDF800E006B07047EE
:1028F00072030020AA0300203C0700207B03002075
:102900007A03002040070020A40300207D0300205C
:102910007C030020440700207F0300207E0300206A
:10292000480700203E0700200000C841B8030020EF
:1029300083B0CDF800E00DF1060202201070511CAA
:1029400041200870911C00200870D11C01200870E3
:10295000FFF7C8F80DF106011148007800230422A2
:10296000FFF7B0FA01A90E48007801230222FFF711
:1029700061F801AA501C0078010289B21078014365
:102980000848018008B2B0F5004F05D30549B1F9F8
:102990000000A0F580300880DDF800E003B070474B
:1029A000470000209801002081B0CDF800E00949DF
:1029B00002B440F2000340F2000240F20001FFF7CF
:1029C0001DF901B0044A05490A600020DDF800E065
:1029D00001B070472C340000C51B0000940100209A
:1029E00081B0CDF800E0094902B440F2000340F2A2
:1029F000000240F20001FFF795F901B0044A0549D1
:102A00000A600020DDF800E001B07047703500007A
:102A1000E11B00009401002081B0CDF800E00949DD
:102A200002B440F2000340F2000240F20001FFF75E
:102A300065F901B0044A05490A600020DDF800E0AC
:102A400001B0704798340000111B00009401002071
:102A500081B0CDF800E0094902B440F2000340F231
:102A6000000240F20001FFF75DF901B0044A054998
:102A70000A600020DDF800E001B07047703500000A
:102A8000E11B0000940100207047FFFF0268064927
:102A90000A60011D0A6805490A6000F208010A6817
:102AA00003490A60704700BF580700205007002004
:102AB0005407002082B0CDF800E000208DF804001B
:102AC000FFF710F801A90948007800230122FFF759
:102AD000F9F906480078012340F200120449FEF794
:102AE000A9FFDDF800E002B0704700BF4D070020ED
:102AF000A002002081B0CDF800E00168084604493A
:102B0000FFF7D2F90020DDF800E001B0704700BF08
:102B10000435000083B0CDF800E00FE03F232AE049
:102B20003E2328E03D2326E03C2324E03B2322E013
:102B30003A2320E039231EE03E231CE020480078A1
:102B40000028EBD01E4800780128E9D01C48007806
:102B50000228E7D01A4800780428E5D01848007801
:102B60000828E3D0164800781028E1D014480078EF
:102B70002028DFD0E0E7462401AA03201070511C72
:102B8000A3F255000870901C0370D11CA4F25500EC
:102B90000870101D0470FEF7A5FF01A90948007810
:102BA00001230522FFF78EF9FEF7DCFF00F030006D
:102BB00080B2010904480180DDF800E003B07047ED
:102BC0004C07002047000020A403002081B0CDF86E
:102BD00000E00178CCB2A0B2034C2468A0470020EA
:102BE000DDF800E001B070479401002083B0CDF81B
:102BF00000E001AB04201870591C0D4A1078AA3867
:102C00000870991C104600780870D91C562008706E
:102C1000191D00200870FEF765FF01A9054800781E
:102C200001230522FFF74EF9DDF800E003B07047FD
:102C3000970300204700002081B0CDF800E0016834
:102C400008460449FFF730F90020DDF800E001B044
:102C5000704700BF0435000082B0CDF800E00021CD
:102C60008DF8041010490870FFF724FFFFF7BEFF2E
:102C7000FFF750FF9DF804209DF80410491C8DF8C3
:102C80000410102A01D9012009E0FEF76BFF00F4BF
:102C9000806189B2890A89B20029E5D00020DDF877
:102CA00000E002B0704700BF4C07002082B0CDF8B2
:102CB00000E000208DF80400FFF7FCFEFFF796FF10
:102CC000FFF728FF9DF804109DF80400401C8DF8C4
:102CD0000400102901D9012013E0FEF743FF00F49E
:102CE000806080B2800A80B20028E5D0FFF780F9CA
:102CF000FFF77CFCFFF7CCFCFFF71AFEFFF7AAF901
:102D00000020DDF800E002B07047FFFF82B0CDF890
:102D100000E08DF8043003469DF80400064C227054
:102D2000064C20700846FFF7B1FE1846FFF7ACFED0
:102D3000DDF800E002B070474D070020470000209A
:102D400081B0CDF800E040F2001212B20349FFF763
:102D50003BFCDDF800E001B0704700BF9C010020A3
:102D600082B0CDF800E002460C460020002149B2B6
:102D70000192019AB2F1FF3F06D1714A11462046F5
:102D8000FFF70EFC0320D7E0012501AAD21C127820
:102D900002F08002D2B272B101AAD31C1A7882F07A
:102DA00080021A706A1CD3B22D222270621C144653
:102DB000DEB2A24601E0A246EEB2019A32B9614A01
:102DC00011465046FFF7ECFB0020B5E0019AB2F146
:102DD000FF4F06D15C4A11465046FFF7E1FBF0B2C7
:102DE000AAE05FFA80F94FFA81F8019A4FF07E501D
:102DF000FFF726F840F2000000DD012048B1019AFB
:102E00005248FEF729FE0190A8F101084FFA88F810
:102E1000EBE7019A4D48FFF713F840F2000000DCA1
:102E2000012048B1019A4A48FEF716FE019008F1C8
:102E300001084FFA88F8ECE7019A5200019201AAC2
:102E4000D21C12787F3AD0B201AAD31C01221A7088
:102E5000019A8240019201AAD21C127830328AF87B
:102E600000200AF10100B8F1010F06DBB8F1060FEE
:102E700003DC05465FFA89F103E02E220270451C4F
:102E8000012106204FFA88F400B301AAD31C0022C6
:102E90001A70019A9300019AD2180192019A520075
:102EA000019201AAD21C127830322A706D1C51B9DD
:102EB000621E52B253B222B92E222A706D1C012119
:102EC000FFE75CB2FFE7401EC0B2DDE7294660B213
:102ED0004A1E1278302A01D1491EF9E74A1E12789B
:102EE0002E2A01D1491EFFE710B365220A70491C42
:102EF000002806DA2D220A70491C424250B243B221
:102F000000E043B2D8B2DAB2092A07D90A22B0FBEC
:102F1000F2F2D2B230320A70491CFFE70A23B0FB4A
:102F2000F3F203FB1202D2B230320A70481C00E006
:102F30000846002202700020DDF800E002B0704771
:102F40003D000020410000204300002000002041FF
:102F5000CDCCCC3D83B0CDF800E0024610460D222A
:102F60008DF808200A228DF809201FE0FFF72EFEB9
:102F700023E002782AB10190FFF728FE0198401C57
:102F8000F7E71AE002782AB10190FFF71FFE0198D7
:102F9000401CF7E702AA1046FFF718FE0DF10902E0
:102FA0001046FFF713FE08E0062007E00029DDD0F9
:102FB0000129DED00229E5D0F6E70020DDF800E0A7
:102FC00003B0704781B0CDF800E011E00846FFF78C
:102FD00023FD16E00846FFF703FD12E00846FFF761
:102FE000E3FC0EE00846FFF733FD0AE0012008E0AD
:102FF0000028EBD00128EDD02028EFD03028F1D0E8
:10300000F4E7DDF800E001B07047FFFF81B0014652
:1030100040F200052DB208460C460B46FFE701784A
:10302000202901D105B904E001252DB201782170D4
:10303000641C0246401C11780029F0D1184601B0EA
:103040007047FFFF81B0CDF800E08B4609E058469D
:10305000FFF7F2FD0AE05846FFF74CFD06E00120BD
:1030600004E00028F3D00128F5D0F8E7DDF800E00F
:1030700001B0704781B01548006840F00101134865
:10308000016013491348016010480168124801406B
:103090000E4801600D4801686FF4802001400B4824
:1030A00001600C4801686FF4FE00014009480160AE
:1030B000064801686FF0A0500140044801604FF0DD
:1030C00000010648016001B0704700BF00100240D7
:1030D0000000FFF004100240FFFFF6FE2C1002403B
:1030E00081B0CDF800E0602350220F490F48FFF770
:1030F0000DFE44F67F77C0F212077F1EFDD100BFA0
:1031000000BF00BF00BF00BF1020FFF7A5FD0848AB
:103110000221FFF71FFF07480221FFF71BFFDDF821
:1031200000E001B0704700BFEC360000DC35000065
:10313000000000201400002081B0CDF800E00C4811
:1031400001460020FFF77EFF4FF4E1312020FFF71A
:1031500039FF44F67F77C0F212077F1EFDD100BF12
:1031600000BF00BF00BF00BFDDF800E001B0704746
:1031700074310000A086010082B0CDF800E0FFF7B6
:1031800095FD012802D02D48FFF7DAFD00208DF8CB
:1031900004009DF80400042834D200208DF80500B6
:1031A0009DF80500102823D29DF80500810009B282
:1031B0009DF80400081800B2C0B281001F484018F2
:1031C00000681F49FFF7CCFD1D48FFF71FFF0021D6
:1031D0001C48017001211A48FFF7BCFE1A48012162
:1031E000FFF7B8FE9DF80500401C8DF80500D7E7F5
:1031F00016480221FFF7AEFE9DF80400401C8DF832
:103200000400C6E712480221FFF7A4FE114802217C
:10321000FFF7A0FE10480221FFF79CFE48F67F57FB
:10322000C0F25B0700BF00BF7F1EFDD100BF00BF23
:1032300000BFDDF800E002B0704700BF540000207E
:10324000540100205A0100203300002035000020E6
:1032500037000020390000203B00002081B01CF81E
:10326000019B0BF8019BBBEB0A0FF8D101B0704733
:1032700081B04FF000094FF0000CBDEB0A0F04DCE9
:10328000BDEB0B0F01DBD446EA464BF8049BBBEBCE
:103290000A0FFAD1BCEB0A0F05DDE246D9F800B0FF
:1032A0000BF1040BF1E701B07047FFFF81B0024959
:1032B0000248016001B07047401901005C0700201E
:1032C00081B0FEE701B0704781B0CDF800E0464A1A
:1032D000464B474C47494BF68030814206D9464819
:1032E000006840F002014448016011E045F6C0501A
:1032F000814206D94048006840F001013E48016023
:1033000006E03D4801686FF0070001403A4801605F
:10331000FFF7B0FE3948036039480460394802EAD3
:1033200000013948016002F0010040B119463648F9
:10333000006800F00200002800D1F8E700E019461C
:1033400002F4803040B10B462F48006800F4003092
:10335000002800D1F8E700E00B4602F0805068B189
:103360002948006840F080512748016026480068DD
:1033700000F00050002800D1F8E7FFE702F080607D
:1033800078B12148006840F080611F480160114613
:103390001A461D48006800F00060002800D1F8E7D8
:1033A00001E011461A4601F0807070B116480068BD
:1033B00040F080711448016011461348006800F025
:1033C000007000B9F9E70A46FFE70C48006800F012
:1033D0000C01900000F00C00814200D0F5E7DDF810
:1033E00000E001B0704700BF8100010502841D00AC
:1033F0004406010040190100002002400410024070
:103400002C100240FFFF0F0000100240FFF75CFF8E
:1034100000F0C2F9FFF74AFF00F070F9FFF78CFEE9
:10342000FFF75EFEFFF7A8FEFCE7FEE709000000DD
:103430000A000000FFFFFFFF000000000000000086
:10344000000000000000000000000000000000007C
:10345000000000000000000000000000000000006C
:103460001808000018000000000000000000000024
:10347000000000000000000000000000000000004C
:10348000000000000000000000000000000000003C
:1034900000000000040000003800000039000000B7
:1034A000FFFFFFFF00000000000000000000000020
:1034B000000000000000000000000000000000000C
:1034C00000000000000000000000000018080000DC
:1034D00018000000000000000000000000000000D4
:1034E00000000000000000000000000000000000DC
:1034F00000000000000000000000000000000000CC
:10350000300014081600000017000000FFFFFFFF46
:1035100000000000000000000000000000000000AB
:10352000000000000000000000000000000000009B
:10353000000000000000000028080000280800002B
:10354000000000000000000000000000000000007B
:10355000000000000000000000000000000000006B
:103560000000000000000000000000000200000059
:103570003500000036000000FFFFFFFF00000000E4
:10358000000000000000000000000000000000003B
:10359000000000000000000000000000000000002B
:1035A00000000000180800001800000000000000E3
:1035B000000000000000000000000000000000000B
:1035C00000000000000000000000000000000000FB
:1035D000000000000000000008000008C504000012
:1035E000DD040000D1040000A1040000710400000B
:1035F000650400007D0400009504000089040000BB
:10360000AD040000B904000059040000FFFFFFFFF3
:10361000FFFFFFFFFFFFFFFFFFFFFFFFFFFFFFFFBA
:10362000FFFFFFFFFFFFFFFFFFFFFFFFFFFFFFFFAA
:10363000FFFFFFFFFFFFFFFFFFFFFFFF4952204794
:1036400052494420494E495449414C495A45440045
:10365000495220475249442054454D504552415407
:10366000555245204D45535552454D454E54000940
:103670000020002000200020004E614E0030004954
:103680004E4600FF0000803F1872313FF0FD753E4E
:103690004758633D58951D3C82C4AE3AA8782139FD
:1036A000EF938037A092A73546561534FFE6DB2E00
:1036B000C4FF7F3F80EFFFBE90E1A93EEC8276BE63
:1036C00082AD2B3E0E3CC3BD87D1133D4178D3BBA9
:1036D00000000000010203040102030406070809B8
:1036E000000000000000000000000000451700007E
:1036F000A1130000C51300000204060800B5DFF89E
:1037000024B0DFF824A0DFF824C0FFF7A7FDDFF81E
:1037100020B0DFF820A0DFF820C0FFF79FFD00BD3C
:10372000704700BF00000020470000203C3600002A
:103730004800002054000020E0360000FFFFFFFF9B
:10374000FFFFFFFFFFFFFFFFFFFFFFFFFFFFFFFF89
:10375000FFFFFFFFFFFFFFFFFFFFFFFFFFFFFFFF79
:10376000FFFFFFFFFFFFFFFFFFFFFFFFFFFFFFFF69
:10377000FFFFFFFFFFFFFFFFFFFFFFFFFFFFFFFF59
:10378000FFFFFFFFFFFFFFFFFFFFFFFFFFFFFFFF49
:10379000FFFFFFFFFFFFFFFF00B5DFF810B0DFF80E
:1037A00010A0FFF765FD00BD704700BF00000020BE
:1037B00088070020FFFFFFFFFFFFFFFFFFFFFFFF66
:00000001FF
