:1000000055EF25F00000000000EF00F000000000B8
:0A0010000000000000000000F3D71C
:08001C000AAE029E000E120064
:100024000B840BAE1DEF00F0010E036E026A016A31
:0A003400006A0A360232FF0E1200C5
:0E003E00026A016A006A086A036A000E120074
:10004C000B820BAE30EF00F00368026801680068A9
:08005C000A360232FF0E120009
:0E006400080164B102D08B9C01D08B8C12007D
:0E007200080164B102D08B9601D08B8612007B
:0E008000080164B102D08B9A01D08B8A120065
:0E008E00080164B102D08B9801D08B8812005B
:0E009C00080164B102D08B9601D08B86120051
:0E00AA00080164B102D08B9E01D08B8E120033
:0E00B800080164B102D08A9201D08A8212003F
:0E00C600080164B102D08B9401D08B8412002B
:0E00D400080164B102D08B9801D08B88120015
:0E00E200080164B102D08F9401D08F84120007
:0E00F000080164B102D08A9401D08A84120003
:0E00FE00080164B102D08F9001D08F801200F3
:0E010C00080164B102D08B9801D08B881200DC
:0E011A00080164B102D08B9601D08B861200D2
:0E012800080164B102D08F9201D08F821200C4
:0E013600080164B102D08D9401D08D841200B6
:0E014400080164B102D08D9601D08D861200A4
:0E015200080164B102D0899401D089841200A2
:0E016000080164B102D08B9A01D08B8A120084
:0E016E00080164B102D08B9801D08B8812007A
:0E017C00080164B102D08B9601D08B86120070
:0E018A00080164B102D08B9801D08B8812005E
:0E019800080164B102D08B9601D08B86120054
:0E01A600080164B102D08B9A01D08B8A12003E
:0E01B400080164B102D08A9001D08A80120046
:0E01C200080164B102D08B9201D08B82120032
:1001D0000F0121B302D00000FBD764C81CFF12003E
:0E01E000ACB202D00000FCD764C8ADFF120024
:0E01EE00080164B102D0899001D0898012000E
:0E01FC00080164B102D08D9001D08D801200F8
:0E020A00080164B102D08B9001D08B801200ED
:0E021800080164B102D0899201D089821200DF
:0E022600080164B102D08B9801D08B881200C1
:0E023400080164B102D08D9201D08D821200BB
:0E024200080164B102D0899801D089881200A9
:0E025000080164B102D08B9601D08B8612009B
:0E025E00080164B102D08B9C01D08B8C120081
:0E026C00080164B102D08B9E01D08B8E12006F
:10027A000CB07FEF01F00CA225EF02F00E6A000E1F
:10028A00026496EF01F0F00E0214D8A461EF01F0B7
:10029A00023A01380F0B02260138F00B016E0038C2
:1002AA000F0B01260038F00B006E08380F0B0026E2
:1002BA000838F00B086E0E84D89002BE7AEF01F06F
:1002CA0008360036013602360E2A02BE7AEF01F0EF
:1002DA0008360036013602360E2A02BE7AEF01F0DF
:1002EA0008360036013602360E2A0E5003641BEF1A
:1002FA0002F0035E0BBC08AE20EF02F0D880800E3D
:10030A0008640030000E002201220222D8A020EF49
:10031A0002F0023201320032034A25EF02F020EFE6
:10032A0002F001C002F000C001F008C000F0086A43
:10033A00000E0E860264CDEF01F0F00E0214D8A46E
:10034A00B5EF01F0023A01380F0B02260138F00B23
:10035A00016E00380F0B01260038F00B006E0E8478
:10036A00D89002BE7AEF01F00036013602360E2A24
:10037A0002BE7AEF01F00036013602360E2A02BEBC
:10038A007AEF01F00036013602360E2A7AEF01F0D2
:10039A0001C002F000C001F0006A000E0E960E883D
:1003AA000264FAEF01F0F00E0214D8A4E5EF01F0AE
:1003BA00023A01380F0B02260138F00B016E0E8447
:1003CA00D89002BE7AEF01F0013602360E2A02BE3A
:1003DA007AEF01F0013602360E2A02BE7AEF01F0F8
:1003EA00013602360E2A7AEF01F001C002F0016AE4
:1003FA00000E0E8602642AEF02F0F00E0214D8A450
:10040A0009EF02F0023A0E84D89002BE7AEF01F0A8
:10041A0002360E2A02BE7AEF01F002360E2A02BE18
:10042A007AEF01F002360E2A7AEF01F0010E0C6E15
:10043A00F4DD2DEF02F0020E0C6EEBDD2DEF02F073
:10044A00040E0C6EFEDD2DEF02F0080E0C6EF2DDCE
:02045A0012008E
:10045C00C7B409D01F0EC514016E0150000A03E188
:0A046C00010E006E01D0006A1200BC
:1004760068B409D01F0E6614016E0150000A03E12C
:0A048600010E006E01D0006A1200A2
:10049000F250026EF29E0500FF6A0150FE6E00509F
:0804A000FD6E02BEF28E120097
:1004A800025006180E6E086A096A0B6A0350076440
:1004B80047EF03F006500A6E068E028E03500B6E4D
:1004C8000750036E000E0B6497EF02F00B50075EA7
:1004D800D8B438EF03F0070E076406EF03F0075EA1
:1004E80000C008F001C000F002C001F0026A074E27
:1004F80038EF03F00764DBEF02F0075E00C008F096
:1005080001C000F0016A074E38EF03F00764B9EF45
:1005180002F0075E00C008F0006A074E38EF03F0EB
:100528000764A0EF02F00AC002F005C001F004C0A1
:1005380000F0086A62EF04F0030E0764ABEF02F004
:10054800075E08380F0B086E074E38EF03F0D89097
:100558000832074E38EF03F0D8900832074E38EFCC
:1005680003F0D890083238EF03F0030E0764CAEF9F
:1005780002F0075E08380F0B086E0038F00B0826EB
:1005880000380F0B006E074E38EF03F0D89000329A
:100598000832074E38EF03F0D89000320832074E81
:1005A80038EF03F0D8900032083238EF03F0030E2A
:1005B8000764F2EF02F0075E08380F0B086E003888
:1005C800F00B082600380F0B006E0138F00B0026E0
:1005D80001380F0B016E074E38EF03F0D890013247
:1005E80000320832074E38EF03F0D890013200325B
:1005F8000832074E38EF03F0D89001320032083243
:1006080038EF03F0030E076423EF03F0075E0838A2
:100618000F0B086E0038F00B082600380F0B006E21
:100628000138F00B002601380F0B016E0238F00B71
:10063800012602380F0B026E074E38EF03F0D890F0
:100648000232013200320832074E38EF03F0D890F8
:100658000232013200320832074E38EF03F0D890E8
:100668000232013200320832096A000E0EAE2CEF57
:1006780004F0081E001E011E021E082A0022012284
:1006880002222CEF04F00750D8A44DEF03F062EFDC
:1006980004F0096A02C00AF0028E068E0750035C55
:1006A800076ED8B41FEF04F0070E0764EDEF03F0F0
:1006B800075E0450096E0550046E0650056E066A02
:1006C800074E1FEF04F0070E0764C2EF03F0075E42
:1006D8000450096E0550046E056A074E1FEF04F0BA
:1006E800070E0764A0EF03F0075E0450096E046A62
:1006F800074E1FEF04F0070E076487EF03F00AC0E8
:1007080002F062EF04F0030E076492EF03F0075E55
:1007180009380F0B096E074E1FEF04F0D890093205
:10072800074E1FEF04F0D8900932074E1FEF04F070
:10073800D89009321FEF04F0030E0764B1EF03F0FD
:10074800075E09380F0B096E0438F00B09260438C8
:100758000F0B046E074E1FEF04F0D89004320932D5
:10076800074E1FEF04F0D89004320932074E1FEFEE
:1007780004F0D890043209321FEF04F0030E076426
:10078800D9EF03F0075E09380F0B096E0438F00B38
:10079800092604380F0B046E0538F00B04260538BB
:1007A8000F0B056E074E1FEF04F0D8900532043288
:1007B8000932074E1FEF04F0D8900532043209328F
:1007C800074E1FEF04F0D8900532043209321FEFAC
:1007D80004F0030E07640AEF04F0075E09380F0BF4
:1007E800096E0438F00B092604380F0B046E05381F
:1007F800F00B042605380F0B056E0638F00B05269E
:1008080006380F0B066E074E1FEF04F0D89006321D
:10081800053204320932074E1FEF04F0D890063231
:10082800053204320932074E1FEF04F0D890063221
:10083800053204320932086A000E0EAE2CEF04F0BD
:10084800091E041E051E061E092A04220522062268
:1008580009500826045000220550012206500222A1
:100868000EBE43EF04F0D8A052EF04F0023201327A
:1008780000320832033E52EF04F05CEF04F0D8B0C7
:1008880057EF04F0000E081E001E011E021E082A63
:100898000022012202220A7E57EF04F0010E0C6E9C
:1008A800E8DC64EF04F0020E0C6EE3DC64EF04F0A5
:1008B800040E0C6E26EC00F064EF04F0000E0C6ED3
:0208C80012001C
:1008CA000B800BAE71EF04F0026A0AAEFF0E026EE5
:0C08DA00016E006E0A360232FF0E1200A2
:0A08E600000E82B4010E006E120035
:0A08F000000E82B6010E006E120029
:0A08FA00000E82B8010E006E12001D
:0A090400000E81B2010E006E120019
:0A090E00000E82BA010E006E120006
:0A091800000E86B4010E006E1200FE
:0A092200000E84B4010E006E1200F6
:0A092C00000E82B8010E006E1200EA
:0A093600000E82B6010E006E1200E2
:0A094000000E82B6010E006E1200D8
:0A094A00000E84B2010E006E1200D0
:0A095400000E82B6010E006E1200C4
:0A095E00000E86B0010E006E1200BC
:0A096800000E82BC010E006E1200AA
:0A097200000E82BE010E006E12009E
:0A097C00000E84B6010E006E12009A
:0A098600000E81B4010E006E120095
:0A099000000E82B6010E006E120088
:0A099A00000E82BA010E006E12007A
:1009A40061C05EF862C05FF863C060F864C061F85B
:1009B400668266A220D00001615162116311641144
:1009C40019E008015E515F11601161110CE1A1C7CA
:1009D400E1FFA2C7E2FF060EE66E9FC700F0A0C7C4
:1009E40001F054DD08D0010E08015E5F000E5F5B6C
:0809F400605B615BDED71200BD
:0A09FC00000E86B2010E006E12001C
:040A060066841200F0
:100A0A000050086E0150006E0250016E0350026ED3
:100A1A00036A0B6A0C6A9E0E036E0A6A02AE22EF22
:100A2A0005F0081E001E011E021E082AD8B4002A5C
:100A3A00D8B4012AD8B4022A0A8E020E0C6E18DC27
:020A4A00120098
:060A4C00067E2CDD120005
:080A52000B6A0B86FF0E120077
:100A5A000B6A0C6A086A0350D8B4B1EF05F002C0F9
:100A6A000AF0028E9E0E035E03AEA1EF05F0036C40
:100A7A00080E035CD8A06EEF05F0036E083600C0BE
:100A8A0008F001C000F002C001F0026A080E035C1F
:100A9A00D8A06EEF05F0036E083600C008F001C05A
:100AAA0000F0016A080E035CD8A06EEF05F0036E31
:100ABA00083600C008F0006A080E035CD8A06EEF82
:100ACA0005F0036E0836086A0350D8A4D8907AEF66
:100ADA0005F00350D8B47AEF05F0D890023201320B
:100AEA0000320832032E72EF05F00BBC08A08BEF20
:100AFA0005F0D8A08BEF05F0082AD8B4002AD8B49C
:100B0A00012AD8B4022A02BEB5EF05F00AAEB1EF47
:100B1A0005F0021E011E001E081E082AD8B4002A6B
:100B2A00D8B4012AD8B4022AB1EF05F0026A016AE0
:100B3A00006A086AB1EF05F00B800BAEBBEF05F057
:100B4A00026A0AAEBBEF05F0026E016E006E086E15
:100B5A000A360232BBEF05F00C6A000EBCEF05F054
:100B6A00010E0C6E000EACDEBCEF05F0FF0E02505B
:100B7A00036E0150026E0050016E0850006E1200A2
:100B8A000C6A0E6A0250D8A4DEEF05F001C002F02A
:100B9A0000C001F0006A0E860250D8A4DEEF05F00C
:100BAA0001C002F0016A0E960E880250D8B4F0EF26
:100BBA0005F00E50035ED8A4D8A0F6EF05F0D89041
:100BCA0002BEFCEF05F0003601360236032EE5EFD1
:100BDA0005F0F6EF05F0010E0C6E1FEC00F000EFC9
:100BEA0006F0020E0C6E12EC00F000EF06F0040E96
:080BFA000C6E0EEC00F012007D
:0A0C0200000E82B8010E006E120011
:0A0C0C00000E80B4010E006E12000D
:100C16009E965EC8C9FF19C05FF81AC060F81BC06F
:100C260061F81CC062F8C7A421D019501A101B1015
:100C36001C101BE008015F516011611162110EE189
:100C46009DC7E1FF9EC7E2FF040EE66E9BC700F05C
:100C56009CC701F01ADC010E006E3BD0010E0801A4
:100C66005F5F000E605B615B625BDDD719C05FF89A
:100C76001AC060F81BC061F81CC062F89EB622D08C
:100C860019501A101B101C101CE008015F5160114E
:100C9600611162110FE19DC7E1FF9EC7E2FF040EDD
:100CA600E66E9BC700F09CC701F048EC02F0010E0F
:100CB600006E0FD0010E08015F5F000E605B615B86
:100CC600625BDCD7C5BC02D0006A03D0C584020EC5
:040CD600006E12009A
:100CDA0019C060F81AC061F81BC062F81CC063F83A
:100CEA009E96C5869EB620D019501A101B101C104D
:100CFA001AE0080160516111621163110DE19DC78B
:100D0A00E1FF9EC7E2FF030EE66E9BC700F09CC799
:100D1A0001F048EC02F008D0010E0801605F000EF5
:100D2A00615B625B635BDED70801C9CF5FF85E5126
:100D3A00000A02E1C58A01D0C59A9E96C58819C0E3
:100D4A0060F81AC061F81BC062F81CC063F89EB64E
:100D5A0020D019501A101B101C101AE008016051FB
:100D6A006111621163110DE19DC7E1FF9EC7E2FFA8
:100D7A00030EE66E9BC700F09CC701F048EC02F038
:100D8A0008D0010E0801605F000E615B625B635B65
:080D9A00DED75FC800F0120073
:100DA200086A096A000E0762036456EF07F00250F0
:100DB20006180A6E075003267E0ED8A0E7EF06F04B
:100DC200035ED8B05BEF07F0EBEF06F0035ED8A04E
:100DD20060EF07F0028E068E02C00EF001C00BF02B
:100DE20000C00DF000500402F4CF0CF001500502D7
:100DF200F4CF00F0F3CF08F00402F3500C26F450C5
:100E02000822000E00220D500502F3500C26F45069
:100E12000822000E002202500402F3500826F45069
:100E2200002202500502016A000E0122F350002640
:100E3200F45001220D500602F3500826F45000220D
:100E4200026A000E012202220B500602F350002613
:100E5200F4500122000E02220E500602F350012627
:100E6200F450022202BE3EEF07F008360036013689
:100E720002360306D8B460EF07F051EF07F0D880CE
:100E8200800E08640030000E002201220222D8A047
:100E920051EF07F0023201320032034A5BEF07F0F2
:100EA2000AAE029E000E63EF07F0010E1FEC00F087
:100EB20063EF07F0020E26EC00F063EF07F0040E7A
:060EC20012EC00F012002A
:100EC8000A6A0350D8A40A800750D8A40A820A5094
:100ED800D8B4C7EF07F0030AD8B480EF07F00AB018
:100EE8007BEF07F006AEC5EF07F0C3EF07F002AEE1
:100EF800C3EF07F0C5EF07F00250800B0A6E029EA1
:100F08000650800B069E0A18D8B491EF07F00A50D5
:100F1800D8B4C3EF07F0C5EF07F00750035CD8B4A7
:100F28009BEF07F0D8A0B7EF07F0BDEF07F006502A
:100F3800025CD8B4A5EF07F0D8A0B7EF07F0BDEF73
:100F480007F00550015CD8B4AFEF07F0D8A0B7EFB1
:100F580007F0BDEF07F00450005CD8B4C7EF07F006
:100F6800D8B0BDEF07F00A52D8B4C5EF07F0C3EF09
:100F780007F00A52D8B4C3EF07F0C5EF07F0D880DE
:0E0F88001200D8901200D880D88412001200F7
:0A0F9600000E82B8010E006E12007A
:100FA00019C05EF81AC05FF81BC060F81CC061F879
:100FB000C582C5A220D019501A101B101C101AE0AF
:100FC00008015E515F11601161110DE19DC7E1FFE4
:100FD0009EC7E2FF060EE66E9BC700F09CC701F0BD
:100FE00048EC02F008D0010E08015E5F000E5F5B66
:080FF000605B615BDED71200BB
:040FF800C58412009A
:0A0FFC00000E80B0010E006E12001E
:0C100600000E0F0121B3010E006E12005D
:1010120061C060F862C061F863C062F864C063F8DE
:10102200A19A6686A1BA21D00001615162116311B1
:1010320064111AE0080160516111621163110DE13E
:10104200A1C7E1FFA2C7E2FF030EE66E9FC700F051
:10105200A0C701F048EC02F008D0010E0801605F61
:10106200000E615B625B635BDDD708016ACF5FF8EC
:101072005E51000A02E1668A01D0669AA19A6688E8
:1010820061C060F862C061F863C062F864C063F86E
:10109200A1BA21D0000161516211631164111AE0F9
:1010A200080160516111621163110DE1A1C7E1FFF5
:1010B200A2C7E2FF030EE66E9FC700F0A0C701F0D1
:1010C20048EC02F008D0010E0801605F000E615B7F
:0C10D200625B635BDDD75FC800F01200BA
:1010DE00AECF01F0ABA202D0AB98AB8801C000F04E
:0210EE001200EE
:0A10F000000EA4BA010E006E1200FB
:0A10FA00000E82B6010E006E120017
:0A110400000E84B0010E006E120010
:10110E0061C060F862C061F863C062F864C063F8E1
:10111E0008015E6B5F6B5F51120802E15E518E0833
:10112E0009E33BEC02F0005201E004D008015E4BF3
:10113E005F2BF1D70801120E5F5D02E18F0E5E5D2F
:10114E0003E37B0E006E27D0668066A023D00001DD
:10115E0061516211631164111CE00801605161114B
:10116E00621163110FE1A1C7E1FFA2C7E2FF050EF5
:10117E00E66E9FC700F0A0C701F048EC02F0010E2A
:10118E00006E09D0010E0801605F000E615B625BAC
:08119E00635BDBD7006A12005D
:1011A60019C060F81AC061F81BC062F81CC063F869
:1011B60008015E6B5F6B5F51120802E15E518E089B
:1011C60009E32EEC02F0005201E004D008015E4B68
:1011D6005F2BF1D70801120E5F5D02E18F0E5E5D97
:1011E60003E37B0E006E25D0C580C5A021D0195023
:1011F6001A101B101C101BE0605161116211631163
:101206000FE19DC7E1FF9EC7E2FF050EE66E9BC795
:1012160000F09CC701F048EC02F0010E006E09D008
:10122600010E0801605F000E615B625B635BDDD7E8
:04123600006A120038
:0A123A00000E82B0010E006E1200DB
:0A124400000E80B2010E006E1200D1
:0A124E00000E82BE010E006E1200B9
:0A125800000E82BC010E006E1200B1
:0A126200000E82B8010E006E1200AB
:0A126C00000EACB2010E006E12007D
:0A127600000E9EBA010E006E120079
:0A128000000E81B0010E006E120096
:0A128A00000E82BA010E006E120081
:101294001DCF01F00F0122A302D02299228901C09F
:0412A40000F0120044
:1012A800A19A5EC86AFF61C05FF862C060F863C057
:1012B80061F864C062F868A423D00001615162112A
:1012C800631164111CE008015F5160116111621122
:1012D8000FE1A1C7E1FFA2C7E2FF040EE66E9FC7B8
:1012E80000F0A0C701F048EC02F0010E006E3CD0FF
:1012F800010E08015F5F000E605B615B625BDBD71C
:1013080061C05FF862C060F863C061F864C062F8E9
:10131800A1BA23D0000161516211631164111CE06C
:1013280008015F516011611162110FE1A1C7E1FF6E
:10133800A2C7E2FF040EE66E9FC700F0A0C701F047
:1013480048EC02F0010E006E0FD0010E08015F5F3D
:10135800000E605B615B625BDBD766BC02D0006A33
:0A13680003D06684020E006E12002E
:0A137200000E82B8010E006E12009A
:0A137C00000E80B8010E006E120092
:0A138600000E82B2010E006E12008C
:10139000510E046E080E056E030E0424E96E000E55
:1013A0000520EA6E7E0EEE5C006E016A000E015AA8
:1013B00055C8E1FF56C8E2FF00C0E6FF01C0E6FFE6
:1013C000030E0424E16E000E0520E26E7E0EE66E32
:1013D00051C800F052C801F053C802F054C803F0DD
:0213E0001200F9
:1013E20000C008F00150006E016A026A036A0B6ACB
:1013F2000C6A016A026A036A960E036E0A6A00AEFA
:1014020009EF0AF0081E001E082AD8B4002A0A8E24
:1014120000C001F008C000F0086A026AC5EC05F0DD
:021422001200B6
:1014240058C800F059C801F0000E080159BFFF0E5A
:10143400026E036E00360090013602360336003623
:10144400009001360236033655510024F66E56518B
:101454000120F76E57510220F86E0900F5CF5AF8B3
:101464000900F5CF5BF80900F5CF5CF80900F5CF6A
:101474005DF85851591148E051C800F052C801F0C4
:1014840053C802F054C803F05AC804F05BC805F00E
:101494005CC806F05DC807F082DC010E585F000EE0
:1014A400595B58C804F059C805F0000E59BFFF0E27
:1014B400066E076E04360490053606360736043683
:1014C400049005360636073655510424F66E5651F7
:1014D4000520F76E57510620F86E0900F5CF04F089
:1014E4000900F5CF05F00900F5CF06F00900F5CFA6
:1014F40007F054EC02F000C05AF801C05BF802C0D7
:101504005CF803C05DF8B5D75AC800F05BC801F0B9
:0A1514005CC802F05DC803F012008D
:10151E0003500718D8A4A3EF0AF002500618D8A457
:10152E00A3EF0AF001500518D8A4A3EF0AF000505B
:0E153E000418D8B4D8841200D89412001200F9
:10154C00510E0801576F080E586F030E5725D96EB0
:10155C00000E5821DA6EDE505525016E000E562114
:10156C00026E01C055F802C056F8800E0218006ECB
:10157C00800E005C02E1000E015C05E2006A016A6B
:10158C00026A036A3ED0800E006E800E5619005C13
:10159C0002E15551FF0825E2046A056A066A076AEA
:1015AC0051C800F052C801F053C802F054C803F0FF
:1015BC0085DC010ED8B0000E006E005209E0FF0E63
:1015CC00006EFF0E016EFF0E026EFF0E036E19D041
:1015DC00FF0E006EFF0E016E7F0E026EFF0E036E8D
:1015EC0010D0030E5725E16E000E5821E26E55C83F
:1015FC00E6FF51C800F052C801F053C802F054C8BD
:04160C0003F01200D5
:101610000450000A12E10550000A0FE10650000ACA
:101620000CE10750000A09E1FF0E006EFF0E016E8B
:101630007F0E026EFF0E036EA8D0086A096A07507B
:10164000D8B4B3EF0BF00350D8B4B8EF0BF002509E
:1016500006180A6E028E068E0E6A02C008F001C0DD
:101660000CF000C00DF004500D5E0550D8A0053CF4
:101670000C5E0650D8A0063C085E086A0C6A0D6A2B
:10168000D8A04AEF0BF0D890023201320032083273
:10169000010E0E6E0750035ED8A057EF0BF07E0EC2
:1016A0000E240326D8B0BDEF0BF05DEF0BF07E0EDD
:1016B0000E240326D8A0C2EF0BF0180E0B6E0D36C9
:1016C0000C3608360036013602360E360450005EFF
:1016D0000550D8A0053C015E0650D8A0063C025E2D
:1016E00006340E120EA078EF0BF00D8083EF0BF096
:1016F000045000260550D8B0053C01260650D8B04D
:10170000062802260D900B2E5FEF0BF0A9EF0BF0D1
:10171000D8900036013602360E360450005E055071
:10172000D8A0053C015E0650D8A0063C025E0634F7
:101730000E10010B0D26D8B00C2AD8B4082AD8A454
:10174000A9EF0BF008320C320D32032AD8B4BDEFEA
:101750000BF00AAE089E0850026E0C50016E0D5040
:10176000006EC5EF0BF0010E29EC05F0C5EF0BF094
:10177000020E1FEC00F0C5EF0BF0040E26EC00F09B
:0C178000C5EF0BF0080E12EC00F0120098
:10178C000B6A0350D8B40CEF0CF002500A6E028EA8
:10179C008E0E035E03AE10EF0CF0036C080E035CB0
:1017AC00D8A0EBEF0BF0036E013602C001F0026A19
:1017BC00080E035CD8A0EBEF0BF0036E0136016A48
:1017CC000350D8A4D890F5EF0BF00350D8B4F5EF34
:1017DC000BF0D89002320132032EEFEF0BF00BBC62
:1017EC0001A002EF0CF0D8A002EF0CF0012AD8B443
:1017FC00022A02BE1FEF0CF00AAE25EF0CF0021EFF
:10180C00011E012AD8B4022A25EF0CF0026A016AE3
:10181C0025EF0CF00B800BAE29EF0CF0026A0AAE30
:10182C0029EF0CF0FF0E026E016E0A36023229EF20
:10183C000CF0010E0C6E65EC04F02BEF0CF0000EAE
:10184C000C6E2BEF0CF0FF0E0C6E0150006E025064
:04185C00016E120007
:1018600054C800F0016A026A036AFF0E0016000EF7
:10187000011600C059F801C05AF87F0E005C026ED4
:10188000000E0158036E02C059F803C05AF8800ECA
:101890000318006E800E005C02E1000E025C22E282
:1018A000046A056A066A076A51C800F052C801F066
:1018B00053C802F054C803F064EC07F0010ED8B02E
:1018C000000E006E005209E0000E006E000E016E68
:1018D000800E026E7F0E036E5CD0006A016A026A9F
:1018E000036A57D008015A51000802E159511808FB
:1018F00009E251C800F052C801F053C802F054C8C0
:1019000003F047D051C800F052C801F053C802F0AC
:1019100054C803F02DEC05F005EC05F000C055F8B7
:1019200001C056F802C057F803C058F800C004F0D0
:1019300001C005F002C006F003C007F051C800F076
:1019400052C801F053C802F054C803F064EC07F029
:10195000010ED8B0000E006E005213E0000E046EAF
:10196000000E056E000E066E7F0E076E55C800F065
:1019700056C801F057C802F058C803F026EC05F02D
:1019800008D055C800F056C801F057C802F058C832
:0419900003F012004E
:101994000801476B486B99C300F09AC301F048EC07
:1019A40002F000C047F8000E0801486F47C800F075
:0619B40048C801F012001A
:1019BA00046A056A066A076A47C800F048C801F05F
:1019CA0049C802F04AC803F0A5DD010ED8A4000EEA
:1019DA00006E005209E0000E006E000E016E000E4D
:1019EA00026E7F0E036EFAD047C804F048C805F0AD
:1019FA0049C806F04AC807F0FC0E006ED40E016E04
:101A0A00320E026E850E036E64EC07F0010ED8B03A
:101A1A00000E006E005209E0FF0E006EFF0E016E0E
:101A2A007F0E026EFF0E036ED9D04F0E046EAC0EFF
:101A3A00056EAE0E066E850E076E47C800F048C8E2
:101A4A0001F049C802F04AC803F064EC07F0010E3D
:101A5A00D8B0000E006E005205E0006A016A026A00
:101A6A00036ABCD0046A056A066A076A47C800F0B6
:101A7A0048C801F049C802F04AC803F064EC07F00C
:101A8A00010ED8B0000E006E00C04DF8005202E000
:101A9A000801497F47C800F048C801F049C802F068
:101AAA004AC803F03B0E046EAA0E056E380E066E87
:101ABA007F0E076ED1EC06F000C047F801C048F867
:101ACA0002C049F803C04AF800C051F801C052F8F0
:101ADA0002C053F803C054F8BEDE53DE00C04BF810
:101AEA0001C04CF879DC00C004F001C005F002C066
:101AFA0006F003C007F047C800F048C801F049C81B
:101B0A0002F04AC803F026EC05F000C047F801C00D
:101B1A0048F802C049F803C04AF800C051F801C0A9
:101B2A0052F802C053F803C054F8630E0801556F07
:101B3A004B0E566F000E576F090E586F000E596FF5
:101B4A006CDC00C051F801C052F802C053F803C05F
:101B5A0054F84BC855F84CC856F8F3DC00C047F89F
:101B6A0001C048F802C049F803C04AF84D532EE0B4
:101B7A00FF0E046EFF0E056E7F0E066EFF0E076ED9
:101B8A0047C800F048C801F049C802F04AC803F043
:101B9A00C1DC010ED8A4000E006E005205E0006AF6
:101BAA00016A026A036A1AD047C804F048C805F0F5
:101BBA0049C806F04AC807F0000E006E000E016E12
:101BCA00000E026E7F0E036E1EDD08D047C800F0BD
:0E1BDA0048C801F049C802F04AC803F01200E2
:101BE80008014F6B506B48C84DF849C84EF847C8B4
:101BF80000F0003600902FC4E1FF30C4E2FF00C0BF
:101C0800E6FF2DC400F02EC401F048EC02F00050AD
:101C180008014F13000E50134AC800F04BC801F0DA
:101C2800010E4A5F000E4B5B0050011018E02FC4F4
:101C3800E1FF30C4E2FF4DC8E9FF4EC8EAFFEECF2E
:101C4800E6FF2DC400F02EC401F048EC02F000506D
:101C580008014F13000E50134D4B4E2BDDD74C513E
:101C6800000A06E131C400F032C401F048EC02F089
:101C780008014C51010A06E135C400F036C401F0F0
:0E1C880048EC02F04FC800F050C801F0120006
:101C960008014F6B506B48C84DF849C84EF847C805
:101CA60000F00036009000802FC4E1FF30C4E2FF50
:101CB60000C0E6FF2DC400F02EC401F048EC02F08F
:101CC600005008014F13000E5013010E4A5F000E1C
:101CD6004B5B4A514B1116E0ABC3E1FFACC3E2FFCD
:101CE600010EE66EA9C300F0AAC301F048EC02F0AB
:101CF6004DC8E1FF4EC8E2FF00C0E6FF08014D4BAC
:101D06004E2BE3D7ABC3E1FFACC3E2FFE66AA9C340
:101D160000F0AAC301F048EC02F04DC8E1FF4EC83E
:101D2600E2FF00C0E6FF08014C51000A06E131C49B
:101D360000F032C401F048EC02F008014C51010AEF
:101D460006E135C400F036C401F048EC02F04FC895
:081D560000F050C801F012007A
:101D5E0047C804F048C805F049C806F04AC807F05D
:101D6E00006A016A026A036A64EC07F0000ED8B0DA
:101D7E00010E006E005205E0006A016A026A036AF3
:101D8E006DD047C851F848C852F849C853F84AC8E8
:101D9E0054F84B0E0801556F080E566FC8EC09F03B
:101DAE00000E046E000E056E000E066E800E076E9F
:101DBE00D1EC06F0000E046E000E056E000E066EDF
:101DCE007F0E076E26EC05F000C047F801C048F8FC
:101DDE0002C049F803C04AF8010E4B5F000E4C5B7F
:101DEE0000C051F801C052F802C053F803C054F8B5
:101DFE008B0E556F4B0E566F000E576F080E586FA9
:101E0E00000E596F12EC0AF000C04DF801C04EF8EA
:101E1E0002C04FF803C050F84DC847F84EC848F8F6
:101E2E004FC849F850C84AF84BC800F04CC801F0EA
:101E3E00F1EC09F0180E046E720E056E310E066E80
:101E4E007E0E076ED1EC06F04DC804F04EC805F0BC
:0E1E5E004FC806F050C807F054EC02F0120016
:101E6C00E00E07018F6F010E906F640E916F080EDC
:101E7C00926FDE0E8B6F100E8C6F000E8D6F000E3E
:101E8C008E6F760E976F120E986F000E996F000E74
:101E9C009A6F6C0E936F120E946F000E956F000E6E
:101EAC00966FAC8A900EAB6E948E949C9EAA03D0C7
:081EBC00AECF00F0FBD71200CD
:101EC40038C804F039C805F03AC806F03BC807F032
:101ED400006A016A026A036A64EC07F0000ED8B073
:101EE400010E006E005205E0006A016A026A036A8C
:101EF400F9D038C83CF839C83DF83AC83EF83BC870
:101F04003FF8000E046E000E056E000E066E7F0E86
:101F1400076E38C800F039C801F03AC802F03BC86F
:101F240003F064EC07F0010ED8B0000E006E00520E
:101F34001AE03CC804F03DC805F03EC806F03FC8AE
:101F440007F0000E006E000E016E000E026E7F0E92
:101F5400036E08EC0BF000C03CF801C03DF802C071
:101F64003EF803C03FF83CC851F83DC852F83EC89B
:101F740053F83FC854F8450E0801556F080E566FC4
:101F8400C8EC09F000C03CF801C03DF802C03EF8BE
:101F940003C03FF800C051F801C052F802C053F822
:101FA40003C054F845C855F846C856F85633553357
:101FB400569F56BD568F56AF03D002E3554B562B52
:101FC400A6EC0AF000C03CF801C03DF802C03EF89F
:101FD40003C03FF8000E046E000E056E000E066E80
:101FE4007F0E076E38C800F039C801F03AC802F015
:101FF4003BC803F064EC07F0010ED8B0000E006E8D
:1020040000521AE03CC804F03DC805F03EC806F092
:102014003FC807F0000E006E000E016E000E026E47
:102024007F0E036E08EC0BF000C03CF801C03DF8D5
:1020340002C03EF803C03FF8140E0801446F3CC8C8
:1020440004F03DC805F03EC806F03FC807F038C8A4
:1020540000F039C801F03AC802F03BC803F008ECBC
:102064000BF03CC804F03DC805F03EC806F03FC87C
:1020740007F054EC02F0000E046E000E056E000E24
:10208400066E800E076E08EC0BF000C040F801C02D
:1020940041F802C042F803C043F83CC804F03DC80C
:1020A40005F03EC806F03FC807F08FEC0AF0010EB9
:1020B400D8A4000E006E005201E00CD040C83CF8D9
:1020C40041C83DF842C83EF843C83FF808014407F8
:1020D4004453B5E13CC800F03DC801F03EC802F0ED
:0620E4003FC803F01200EA
:1020EA00020E08013A6F920E3B6F3C6B010E3D6F78
:1020FA004CDC48C647F83A0E486F080E496F040E82
:10210A004A6F000E4B6F010E4C6F69DD48C647F8E7
:10211A00380E0801486F080E496F020E4A6F000E0A
:10212A004B6F4C6BB3DD39C801F0006A08013851B6
:08213A000012000E0112120058
:10214200D00E07018F6F010E906F640E916F080E13
:10215200926F940E8B6F120E8C6F000E8D6F000EAD
:102162008E6FF00E976F100E986F000E996F000E23
:102172009A6F060E936F100E946F000E956F000EFD
:10218200966F0F01218B900E226F98849892A4AAC9
:0A21920003D01DCF00F0FBD71200B0
:10219C005C0E0301936F040E946F000E956F000E8E
:1021AC00966FA60E8F6F110E906F000E916F000E32
:1021BC00926FA00E7F6F0F0E806F000E816F000E5E
:1021CC00826FDA0E7B6F0C0E7C6F5E0E7D6F080ECD
:1021DC007E6F160E836F0C0E846F5E0E856F080E6D
:1021EC00866FF80E876F0F0E886F000E896F000ECA
:1021FC008A6F949894968B988B9694889486C79EA5
:08220C00C79C380EC66E1200DB
:1022140000C008F00B6A0C6A9E0E036E0A6A026A1A
:0E222400016A006A020E0C6E3DEC01F0120021
:102232000801446B046A056A066A076A3CC800F032
:102242003DC801F03EC802F03FC803F08FEC0AF02F
:10225200010ED8A4000E006E005209E0000E006EBE
:10226200000E016E000E026E7F0E036EA7D0046A8E
:10227200056A066A076A38C800F039C801F03AC828
:1022820002F03BC803F08FEC0AF0010ED8A4000E56
:10229200006E005205E0006A016A026A036A8ED08B
:1022A200046A056A066A076A38C800F039C801F08C
:1022B2003AC802F03BC803F064EC07F0010ED8B054
:1022C200000E006E00522DE03CC800F03DC801F047
:1022D2003EC802F03FC803F02DEC05F000C040F804
:1022E20001C041F802C042F803C043F805EC05F012
:1022F2003CC804F03DC805F03EC806F03FC807F0F0
:102302008FEC0AF0000ED8A4010E006E005205E018
:10231200006A016A026A036A51D0010E4015446FD5
:102322003A7F38C847F839C848F83AC849F83BC82C
:102332004AF814DD00C038F801C039F802C03AF892
:1023420003C03BF83CC804F03DC805F03EC806F0A7
:102352003FC807F0D1EC06F000C038F801C039F8E8
:1023620002C03AF803C03BF800C047F801C048F881
:1023720002C049F803C04AF8DDEC0CF000C038F89E
:1023820001C039F802C03AF803C03BF808014453CF
:102392000DE0000E3819006E000E3919016E800E24
:1023A2003A19026E000E3B19036E08D038C800F0CD
:0E23B20039C801F03AC802F03BC803F012002F
:0223C000120009
:1023C200B3C7F6FFB4C7F7FFB5C7F8FF0900F5CFEB
:1023D20099F30900F5CF9AF30900F5CF9BF30900B1
:1023E200F5CF9CF3040E0701B325F66E000EB4215F
:1023F200F76E000EB521F86E0900F5CF31F4090031
:10240200F5CF32F40900F5CF33F40900F5CF34F4F7
:10241200080EB325F66E000EB421F76E000EB5213C
:10242200F86E0900F5CF35F40900F5CF36F409004E
:10243200F5CF37F40900F5CF38F40C0EB325F66E5C
:10244200000EB421F76E000EB521F86E0900F5CF2B
:102452002DF40900F5CF2EF40900F5CF2FF4090071
:10246200F5CF30F4100EB325F66E000EB421F76EE0
:10247200000EB521F86E0900F5CFA9F30900F5CFDA
:10248200AAF30900F5CFABF30900F5CFACF31200C4
:102492000701B36BCAEC0CF03BC447F8B30E486FAC
:1024A200070E496F010E4A6F000E4B6F010E4C6F03
:1024B200F4EC0DF03BC447F8480E0801486F050ED6
:1024C200496F000E4A6F010E4B6F4C6B4BEC0EF0D6
:0224D2001200F6
:1024D40020D03F0E0701B86F33D007013E0EB86F0E
:1024E4002FD007013D0EB86F2BD007013C0EB86FFB
:1024F40027D007013B0EB86F23D007013A0EB86FFF
:102504001FD00701390EB86F1BD007013E0EB86FFC
:1025140017D000016051000ADCE06051010ADDE0DF
:102524006051020ADEE06051040ADFE06051080AEB
:10253400E0E06051100AE1E06051200AE2E0E5D7F2
:10254400030E0701B36F550EB85DB46FB8C7B5F786
:10255400F10EB66F460EB76FCAEC0CF048C647F8DA
:10256400B30E486F070E496F050E4A6F000E4B6F8E
:102574004C6BF4EC0DF0B7DD300E00140401396F30
:1025840001C03AF4000E3A17040E006E005005E044
:0C2594003A3339333A9FFF0FFAD7120098
:1025A000040E0701B36FAA0E06013F5D0701B46F69
:1025B0003FC6B5F7560EB66FB76BCAEC0CF048C6FF
:1025C00047F8B30E486F070E496F050E4A6F000EAD
:0A25D0004B6F4C6BF4EC0DF01200A1
:1025DA0021D0CF0EAF6EAC9444DC6BD0670EAF6ED9
:1025EA00AC943FDC66D0CF0EAF6EAC843ADC61D0DF
:1025FA00670EAF6EAC8435DC5CD0440EAF6EAC8433
:10260A0030DC57D0220EAF6EAC842BDC52D0060ED3
:10261A00006E59D00701000E006EB61908E100508D
:10262A00B51905E1120EB41902E1B351C00AD1E09D
:10263A00000E006EB61908E10050B51905E1250E25
:10264A00B41902E1B351800AC9E0000E006EB6194E
:10265A0008E10050B51905E14B0EB41902E1B35176
:10266A00000AC1E0000E006EB61908E10050B51963
:10267A0005E1960EB41902E1B351000AB9E0000E61
:10268A00006EB61908E10050B51905E1E10EB4195A
:10269A0002E1B351000AB1E0B651000A08E1B551AE
:1026AA00010A05E1B451C20A02E1B351000AAAE0E3
:1026BA00AED7E00E03018B6F010E8C6F640E8D6F27
:0826CA00080E8E6F006A120079
:1026D200B3C7B6F7B4C7B7F7B5C7B8F70BD0A00EF4
:1026E200C86E5BDD44D0280EC86E57DD40D0040EA4
:1026F200006E3FD0B6C7F6FFB7C7F7FFB8C7F8FFFF
:102702000900F5CF01F00900F5CF02F00900F5CF7D
:1027120003F00900F5CF04F00450000A08E1035069
:10272200010A05E10250860A02E10150A00AD7E03F
:10273200B6C7F6FFB7C7F7FFB8C7F8FF0900F5CF6E
:1027420001F00900F5CF02F00900F5CF03F009000E
:10275200F5CF04F00450000A08E10350060A05E12F
:1027620002501A0A02E10150800ABDE0C0D7000EF1
:04277200006E1200E3
:1027760027D0CF0EAF6EAC9436EC0FF070D0670E4C
:10278600AF6EAC9436EC0FF06AD0CF0EAF6EAC8461
:1027960036EC0FF064D0670EAF6EAC8436EC0FF0FB
:1027A6005ED0440EAF6EAC8436EC0FF058D0220EDD
:1027B600AF6EAC8436EC0FF052D0060E006E59D0D8
:1027C6000701000E006EB61908E10050B51905E1C3
:1027D600120EB41902E1B351C00ACBE0000E006E2E
:1027E600B61908E10050B51905E1250EB41902E144
:1027F600B351800AC4E0000E006EB61908E100501D
:10280600B51905E14B0EB41902E1B351000ABDE05A
:10281600000E006EB61908E10050B51905E1960ED6
:10282600B41902E1B351000AB6E0000E006EB61903
:1028360008E10050B51905E1E10EB41902E1B35102
:10284600000AAFE0B651000A08E1B551010A05E1F8
:10285600B451C20A02E1B351000AA9E0AED7E00EB4
:1028660003018B6F010E8C6F640E8D6F080E8E6FD9
:04287600006A1200E2
:10287A00B3C7B6F7B4C7B7F7B5C7B8F70BD0A00E4A
:10288A00C86E87DC44D0280EC86E83DC40D0040EA4
:10289A00006E3FD0B6C7F6FFB7C7F7FFB8C7F8FF55
:1028AA000900F5CF01F00900F5CF02F00900F5CFD4
:1028BA0003F00900F5CF04F00450000A08E10350C0
:1028CA00010A05E10250860A02E10150A00AD7E096
:1028DA00B6C7F6FFB7C7F7FFB8C7F8FF0900F5CFC5
:1028EA0001F00900F5CF02F00900F5CF03F0090065
:1028FA00F5CF04F00450000A08E10350060A05E186
:10290A0002501A0A02E10150800ABDE0C0D7000E47
:04291A00006E120039
:10291E0027D0CF0EAF6EAC9436EC0FF070D0670EA2
:10292E00AF6EAC9436EC0FF06AD0CF0EAF6EAC84B7
:10293E0036EC0FF064D0670EAF6EAC8436EC0FF051
:10294E005ED0440EAF6EAC8436EC0FF058D0220E33
:10295E00AF6EAC8436EC0FF052D0060E006E59D02E
:10296E000701000E006EB61908E10050B51905E119
:10297E00120EB41902E1B351C00ACBE0000E006E84
:10298E00B61908E10050B51905E1250EB41902E19A
:10299E00B351800AC4E0000E006EB61908E1005073
:1029AE00B51905E14B0EB41902E1B351000ABDE0B1
:1029BE00000E006EB61908E10050B51905E1960E2D
:1029CE00B41902E1B351000AB6E0000E006EB6195A
:1029DE0008E10050B51905E1E10EB41902E1B35159
:1029EE00000AAFE0B651000A08E1B551010A05E14F
:1029FE00B451C20A02E1B351000AA9E0AED7E00E0B
:102A0E0003018B6F010E8C6F640E8D6F080E8E6F2F
:042A1E00006A120038
:102A2200B3C7B6F7B4C7B7F7B5C7B8F70DD0A00E9E
:102A3200C86ECEEC10F045D0280EC86ECEEC10F069
:102A420040D0040E006E3FD0B6C7F6FFB7C7F7FFFF
:102A5200B8C7F8FF0900F5CF01F00900F5CF02F081
:102A62000900F5CF03F00900F5CF04F00450000A85
:102A720008E10350010A05E10250860A02E1015011
:102A8200A00AD5E0B6C7F6FFB7C7F7FFB8C7F8FF89
:102A92000900F5CF01F00900F5CF02F00900F5CFEA
:102AA20003F00900F5CF04F00450000A08E10350D6
:102AB200060A05E102501A0A02E10150800ABCE04E
:082AC200C0D7000E006E1200E7
:102ACA003ED00F0120870D0E1F6F040E1E6F218549
:102ADA00A1EC10F083D00F012087060E1F6F820E23
:102AEA001E6F2185A1EC10F079D00F012087030E0B
:102AFA001F6F400E1E6F2185A1EC10F06FD00F01E1
:102B0A002087010E1F6FA00E1E6F2185A1EC10F009
:102B1A0065D00F012087010E1F6F150E1E6F2185CC
:102B2A00A1EC10F05BD00F0120871F6B8A0E1E6F7D
:102B3A002185A1EC10F052D0060E006E59D0000E7D
:102B4A00006E0701B61908E10050B51905E1120E29
:102B5A00B41902E1B351C00AB4E0000E006EB6190E
:102B6A0008E10050B51905E1250EB41902E1B35187
:102B7A00800AB1E0000E006EB61908E10050B519DE
:102B8A0005E14B0EB41902E1B351000AAEE0000EA2
:102B9A00006EB61908E10050B51905E1960EB41990
:102BAA0002E1B351000AABE0000E006EB61908E16B
:102BBA000050B51905E1E10EB41902E1B351000A5A
:102BCA00A8E0B651000A08E1B551010A05E1B4517D
:102BDA00C20A02E1B351000AA6E0AED7D00E030141
:102BEA008B6F010E8C6F640E8D6F080E8E6F006AEC
:022BFA001200C7
:102BFC00020E0701B56F400EB66FB76B010EB86FC2
:102C0C00CAEC0CF048C647F8B50E486F070E496F72
:102C1C00040E4A6F000E4B6F010E4C6FF4EC0DF06E
:102C2C0048C647F8B30E0801486F070E496F020EED
:102C3C004A6F000E4B6F4C6B4BEC0EF0B4C798F315
:102C4C000301976B0701B35103019713000E9813FF
:022C5C00120064
:102C5E00B5C704F0B6C705F0B3C702F0B4C703F0AA
:102C6E00B7C700F0B8C701F0010E0701B75F000E3D
:102C7E00B85B005001100FE004C0E9FF05C0EAFF89
:102C8E0002C0E1FF03C0E2FFEECFE6FF024A032AD5
:082C9E00044A052AE5D71200E3
:102CA6002DC601F0006A06012C510026000E0122F5
:102CB600F1EC09F0000E046E000E056E000E066EB5
:102CC6008E0E076E08EC0BF000C03CF501C03DF51A
:102CD60002C03EF503C03FF519C672F30301716BDE
:102CE6000601185103017127000E72231FC601F059
:102CF600006A06011E5100240701C56F000E01205F
:102D0600C66F000E0801386F000E396F000E3A6F5D
:102D1600800E3B6F2AC600F00AEC11F000C03CF8AA
:102D260001C03DF802C03EF803C03FF819EC11F0AF
:102D360000C0C1F701C0C2F702C0C3F703C0C4F7A1
:102D4600000E386F000E396F000E3A6F800E3B6F23
:102D5600040139510308006E3AC401F0000E015611
:102D6600F1EC09F000C03CF801C03DF802C03EF8A5
:102D760003C03FF819EC11F0C1C704F0C2C705F053
:102D8600C3C706F0C4C707F0D1EC06F000C0C1F710
:102D960001C0C2F702C0C3F703C0C4F7C5C700F03D
:102DA600C6C701F0F1EC09F0C1C704F0C2C705F0CF
:102DB600C3C706F0C4C707F008EC0BF000C06DF3FC
:102DC60001C06EF302C06FF303C070F3F00E06018C
:102DD60021150301736F746B000E7417000E746F68
:102DE600040E006E005007E074337333749F74BD95
:102DF600748FFF0FF8D721C679F3000E7A6F0F0E86
:102E06007917000E7A171CC600F00AEC11F0000EB6
:102E1600046E000E056E000E066E870E076ED1EC70
:102E260006F000C0C1F701C0C2F702C0C3F703C075
:102E3600C4F71BC600F00AEC11F0C1C704F0C2C704
:102E460005F0C3C706F0C4C707F054EC02F000C093
:102E560075F301C076F302C077F303C078F3000E72
:102E66000801386F000E396F000E3A6F800E3B6F07
:102E7600040139510308006E3AC401F0000E0156F0
:102E8600F1EC09F000C03CF801C03DF802C03EF884
:102E960003C03FF819EC11F000C004F001C005F0C2
:102EA60002C006F003C007F075C300F076C301F058
:102EB60077C302F078C303F008EC0BF000C075F39B
:102EC60001C076F302C077F303C078F31DC600F0A5
:102ED6000AEC11F000C069F001C06AF002C06BF0A4
:102EE60003C06CF0000E0801386F000E396F000E3B
:102EF6003A6F800E3B6F79C300F07AC301F0F1ECB4
:102F060009F000C03CF801C03DF802C03EF803C01D
:102F16003FF819EC11F000C0C1F701C0C2F702C0BA
:102F2600C3F703C0C4F7000E386F000E396F000EEA
:102F36003A6F800E3B6F040139510308006E3AC4A4
:102F460001F0000E0156F1EC09F000C03CF801C09A
:102F56003DF802C03EF803C03FF819EC11F0C1C7B6
:102F660004F0C2C705F0C3C706F0C4C707F0D1EC2A
:102F760006F000C004F001C005F002C006F003C070
:102F860007F069C000F06AC001F06BC002F06CC0C7
:102F960003F008EC0BF000C0C5F701C0C6F702C08D
:102FA600C7F703C0C8F7C5C769F0C6C76AF0C7C781
:102FB6006BF0C8C76CF020C600F00AEC11F000C038
:102FC60065F001C066F002C067F003C068F0000E4D
:102FD600046E000E056E000E066E840E076E08EC7B
:102FE6000BF000C065F001C066F002C067F003C0D8
:102FF60068F040C500F041C501F0F1EC09F000C0F1
:10300600C1F701C0C2F702C0C3F703C0C4F7000E80
:10301600046E000E056E480E066E830E076E9DC387
:1030260000F09EC301F09FC302F0A0C303F026EC9C
:1030360005F0C5C704F0C6C705F0C7C706F0C8C780
:1030460007F0D1EC06F075C304F076C305F077C33C
:1030560006F078C307F054EC02F000C004F001C09B
:1030660005F002C006F003C007F0C1C700F0C2C7F2
:1030760001F0C3C702F0C4C703F026EC05F000C098
:10308600B5F701C0B6F702C0B7F703C0B8F7070136
:10309600B36BB46B000EB45D02E1400EB35DD8B005
:1030A60086EF1CF0B3C700F0B4C701F000360090FD
:1030B60001360036009001366D0E0024CD6F000EED
:1030C6000120CE6F71C300F072C301F0F1EC09F07C
:1030D60000C0C9F701C0CAF702C0CBF703C0CCF7DE
:1030E600480EB325C56F050EB421C66F000E080144
:1030F600386F000E396F000E3A6F800E3B6F73C348
:1031060000F074C301F0F1EC09F000C03CF801C016
:103116003DF802C03EF803C03FF819EC11F000C0BC
:10312600C1F701C0C2F702C0C3F703C0C4F7C5C7E1
:10313600E9FFC6C7EAFFEECF00F00AEC11F0C1C7FF
:1031460004F0C2C705F0C3C706F0C4C707F0D1EC48
:1031560006F0C9C704F0CAC705F0CBC706F0CCC74E
:1031660007F054EC02F000C0C1F701C0C2F702C07C
:10317600C3F703C0C4F7000E386F000E396F000E98
:103186003A6F800E3B6F040139510308006E3AC452
:1031960001F0000E0156F1EC09F000C03CF801C048
:1031A6003DF802C03EF803C03FF819EC11F000C02C
:1031B60004F001C005F002C006F003C007F0C1C765
:1031C60000F0C2C701F0C3C702F0C4C703F008ECA1
:1031D6000BF0CDC7E1FFCEC7E2FF00C0E6FF01C09E
:1031E600E6FF02C0E6FF03C0E6FFB3C700F0B4C7C0
:1031F60001F00036009001360036009001366D0E63
:1032060000240701C16F020E0120C26F400EB325D4
:10321600006E000EB421016E480E0024E96E050E04
:103226000120EA6EEECF00F00AEC11F0C1C7E1FF13
:10323600C2C7E2FF00C0E6FF01C0E6FF02C0E6FF2C
:1032460003C0E6FFB3C700F0B4C701F00036009034
:1032560001360036009001366D0E0024E96E020E2E
:103266000120EA6EEECF04F0EECF05F0EECF06F0C9
:10327600EECF07F0000E006E000E016E7E0E026E9F
:10328600850E036E64EC07F0010ED8B0000E006EDA
:10329600005232E0B3C700F0B4C701F00036009028
:1032A60001360036009001366D0E0024C16F020E05
:1032B6000120C26FC1C7E9FFC2C7EAFFEECF00F027
:1032C600EECF01F0EECF02F0EECF03F0000E046E6B
:1032D600000E056E000E066E870E076E26EC05F0D4
:1032E600C1C7E1FFC2C7E2FF00C0E6FF01C0E6FFBB
:1032F60002C0E6FF03C0E6FFB3C700F0B4C701F0A3
:103306000036009001360036009001366D0E00241E
:10331600C96F020E0120CA6FC9C7E9FFCAC7EAFF13
:10332600EECFC5F7EECFC6F7EECFC7F7EECFC8F7AD
:10333600000E0801386F000E396F000E3A6F800ECE
:103346003B6F79C300F07AC301F0F1EC09F000C0DD
:103356003CF801C03DF802C03EF803C03FF819EC46
:1033660011F000C0C1F701C0C2F702C0C3F703C025
:10337600C4F7000E386F000E396F000E3A6F800EDC
:103386003B6F040139510308006E3AC401F0000E88
:103396000156F1EC09F000C03CF801C03DF802C04E
:1033A6003EF803C03FF819EC11F0C1C704F0C2C7DC
:1033B60005F0C3C706F0C4C707F0D1EC06F000C09D
:1033C60004F001C005F002C006F003C007F0C5C74F
:1033D60000F0C6C701F0C7C702F0C8C703F008EC83
:1033E6000BF0C9C7E1FFCAC7E2FF00C0E6FF01C094
:1033F600E6FF02C0E6FF03C0E6FFB3C700F0B4C7AE
:1034060001F0003600900136AD0E0024E96E030E81
:103416000120EA6EEECFCDF7EECFCEF7B3C7C9F7F0
:10342600B4C7CAF70701C937C991CA37C937C9919D
:10343600CA376D0EC925E96E000ECA21EA6EEECFB7
:10344600C5F7EECFC6F7EECFC7F7EECFC8F76D0ECE
:10345600C925C16F020ECA21C26F000E046E000E8E
:10346600056E480E066E830E076E9DC300F09EC362
:1034760001F09FC302F0A0C303F026EC05F0C1C71C
:10348600E9FFC2C7EAFFEECF04F0EECF05F0EECFBC
:1034960006F0EECF07F0D1EC06F0C5C704F0C6C7BC
:1034A60005F0C7C706F0C8C707F054EC02F000C025
:1034B600C1F701C0C2F702C0C3F703C0C4F7CDC746
:1034C60000F0CEC701F0F1EC09F0C1C704F0C2C7A5
:1034D60005F0C3C706F0C4C707F026EC05F000C028
:1034E600C1F701C0C2F702C0C3F703C0C4F765C085
:1034F60000F066C001F067C002F068C003F0B5C70F
:1035060004F0B6C705F0B7C706F0B8C707F0D1ECA8
:1035160006F000C004F001C005F002C006F003C0CA
:1035260007F0C1C700F0C2C701F0C3C702F0C4C7A5
:1035360003F026EC05F000C0B9F701C0BAF702C0E7
:10354600BBF703C0BCF76D0EC927010ECA2329C6F7
:1035560001F0006A0601285100240701C56F000E1C
:103566000120C66F000E0801386F000E396F000E7D
:103576003A6F800E3B6F2AC600F00AEC11F000C0CD
:103586003CF801C03DF802C03EF803C03FF819EC14
:1035960011F000C0C1F701C0C2F702C0C3F703C0F3
:1035A600C4F7C5C700F0C6C701F0F1EC09F0C1C702
:1035B60004F0C2C705F0C3C706F0C4C707F008EC9D
:1035C6000BF0C9C7E1FFCAC7E2FF00C0E6FF01C0B2
:1035D600E6FF02C0E6FF03C0E6FFB3C700F0B4C7CC
:1035E60001F00036009001360036009001366D0E6F
:1035F60000240701C96F010E0120CA6F800EB32592
:10360600006E000EB421016E480E0024E96E050E10
:103616000120EA6EEECFC5F7000E0801386F000EE6
:10362600396F000E3A6F800E3B6F2BC600F00AEC26
:1036360011F000C03CF801C03DF802C03EF803C0DE
:103646003FF819EC11F000C0C1F701C0C2F702C083
:10365600C3F703C0C4F7C5C700F00AEC11F0C1C731
:1036660004F0C2C705F0C3C706F0C4C707F008ECEC
:103676000BF0C9C7E9FFCAC7EAFFEECF04F0EECFE9
:1036860005F0EECF06F0EECF07F054EC02F0C9C716
:10369600E1FFCAC7E2FF00C0E6FF01C0E6FF02C0C5
:1036A600E6FF03C0E6FFB3C700F0B4C701F000367B
:1036B600009001360036009001366D0E0024070199
:1036C600C56F010E0120C66FC5C7E9FFC6C7EAFF71
:1036D600EECFC1F7EECFC2F7EECFC3F7EECFC4F70A
:1036E600000E0801386F000E396F000E3A6F800E1B
:1036F6003B6F040139510308006E3AC401F0000E15
:103706000156F1EC09F000C03CF801C03DF802C0DA
:103716003EF803C03FF819EC11F000C004F001C0F8
:1037260005F002C006F003C007F0C1C700F0C2C72B
:1037360001F0C3C702F0C4C703F008EC0BF0C5C71D
:10374600E1FFC6C7E2FF00C0E6FF01C0E6FF02C018
:10375600E6FF03C0E6FFB3C7C5F7B4C7C6F7070160
:10376600C537C591C637C537C591C6376D0EC52550
:10377600E96E010EC621EA6EEECFC1F7EECFC2F7B3
:10378600EECFC3F7EECFC4F765C000F066C001F018
:1037960067C002F068C003F06DC304F06EC305F0A5
:1037A6006FC306F070C307F0D1EC06F000C004F05A
:1037B60001C005F002C006F003C007F0C1C700F063
:1037C600C2C701F0C3C702F0C4C703F026EC05F078
:1037D60000C004F001C005F002C006F003C007F007
:1037E600B9C700F0BAC701F0BBC702F0BCC703F007
:1037F60008EC0BF03CC504F03DC505F03EC506F0EF
:103806003FC507F008EC0BF000C0BDF701C0BEF7DE
:1038160002C0BFF703C0C0F73C0E0701C525C16F44
:10382600040EC621C26F9DC300F09EC301F09FC364
:1038360002F0A0C303F0330E046E930E056E080E5D
:10384600066E870E076E54EC02F000C038F801C011
:1038560039F802C03AF803C03BF8000E08013C6F85
:10386600000E3D6F000E3E6F810E3F6F19EC11F09A
:10387600BDC704F0BEC705F0BFC706F0C0C707F056
:1038860054EC02F000C047F801C048F802C049F8FD
:1038960003C04AF8AFEC0EF0000E046E000E056E83
:1038A600000E066E810E076E08EC0BF000C047F89E
:1038B60001C048F802C049F803C04AF8DDEC0CF034
:1038C60000C004F001C005F002C006F003C007F016
:1038D600000E006EC00E016E240E026E870E036E81
:1038E60026EC05F0C1C7E1FFC2C7E2FF00C0E6FF54
:1038F60001C0E6FF02C0E6FF03C0E6FF0701B34BC7
:08390600B42B4DEF18F0120084
:10390E008DC3E1FF8EC3E2FFB3C7E9FFB4C7EAFF81
:10391E00EECFE6FF8BC300F08CC301F048EC02F053
:04392E00006A120019
:10393200020E0701B56F410EB66FB76B010EB86F7D
:10394200CAEC0CF048C647F8B50E486F070E496F2F
:10395200040E4A6F000E4B6F010E4C6FF4EC0DF02B
:1039620048C647F8B30E0801486F070E496F020EAA
:103972004A6F000E4B6F4C6B4BEC0EF0B4C701F06C
:10398200006A0701B3510010026E01C003F0000E7D
:10399200031202C040F503C041F5800E035C02E150
:1039A200000E025C05E3000E0501405F000E415B64
:0239B200120001
:1039B400B3C704F0B4C705F004C002F005C003F0B7
:1039C400044A052AB5C700F0B6C701F00701B54B94
:1039D400B62B00C0E9FF01C0EAFF02C0E1FF03C04B
:1039E400E2FFEECFE6FF02C0E9FF03C0EAFFEE52BA
:0E39F40001E0E2D7B3C700F0B4C701F0120043
:103A02000D6A086A0050D8B4000C04180A6E0ABE87
:103A12000D1E0B6A04AE02D0041E042A00AE02D0B0
:103A2200001E002A005004100A6E0ABE1FD0045065
:103A3200085E003600340836045008260036060EAA
:103A42000C6E00340836045000B0085E00A0082650
:103A520000360C2EF6D700A008260BB015D00DAEFE
:103A6200000C001E002A081E082A000C04AE09D011
:103A720000BE04D00050086E006AF1D7006A002A26
:103A8200000C001E0B2AD3D7082A0450085CD8A4C5
:0E3A9200E6D7086A002A00AEE2D7FF0C120049
:103AA000020E0701B46FB56B010EB66F400EB76F13
:103AB000CAEC0CF048C647F8B40E486F070E496FC1
:103AC000040E4A6F000E4B6F010E4C6FF4EC0DF0BC
:103AD00048C647F8B80E0801486F070E496F800EB8
:103AE0004A6F000E4B6F4C6B4BEC0EF00701B36B43
:103AF000400EB35DD8B07FD0B3C700F0000E016EAA
:103B0000003600900136AD0E0024E16E030E012058
:103B1000E26EE66AE66AB3C700F0000E016E003698
:103B200000900136AD0E0024026E030E0120036EDC
:103B3000004A012AB80E0024D96E070E0120DA6E61
:103B400002C0E9FF03C0EAFFDE50EE10006EEECFC8
:103B500001F0000E011202C0E1FF03C0E2FF00C04D
:103B6000E6FF01C0E6FFB3C700F0000E016E0036AD
:103B700000900136AD0E0024056E030E0120066E86
:103B800005C0E9FF06C0EAFFEECF03F0EECF04F078
:103B900003C001F0006A05C0E1FF06C0E2FF00C0FB
:103BA000E6FF01C0E6FFB3C700F0000E016E00366D
:103BB00000900136AD0E0024026E030E0120036E4C
:103BC000B80E0024D96E070E0120DA6E02C0E9FF9C
:103BD00003C0EAFFDE50EE10006EEECF01F0000EE3
:103BE000011202C0E1FF03C0E2FF00C0E6FF01C016
:083BF000E6FFB32B7DD71200A4
:103BF800F00E06011A15496F4A6B000E4A17000E9F
:103C08004A6F040E006E005007E04A3349334A9F5A
:103C18004ABD4A8FFF0FF8D70F0E1A150501426FDC
:103C2800436B000E4317000E436F0A0E4227000E27
:103C3800432323C600F00AEC11F0000E046E000EB8
:103C4800056E000E066E870E076ED1EC06F000C0FA
:103C5800B3F701C0B4F702C0B5F703C0B6F722C680
:103C680000F00AEC11F0B3C704F0B4C705F0B5C70B
:103C780006F0B6C707F054EC02F000C044F501C0E6
:103C880045F502C046F503C047F5000E046E000E68
:103C9800056E000E066E8E0E076E64EC07F0000EC1
:103CA800D8B0010E006E00521AE0000E046E000E2D
:103CB800056E000E066E8F0E076E44C500F045C5F2
:103CC80001F046C502F047C503F026EC05F000C038
:103CD80044F501C045F502C046F503C047F5000E9E
:103CE8000801386F000E396F000E3A6F800E3B6F77
:103CF800040139510308006E3AC401F0000E015660
:103D0800F1EC09F000C03CF801C03DF802C03EF8F3
:103D180003C03FF819EC11F000C004F001C005F031
:103D280002C006F003C007F044C500F045C501F025
:103D380046C502F047C503F008EC0BF000C044F597
:103D480001C045F502C046F503C047F525C600F099
:103D58000AEC11F0000E046E000E056E000E066EE1
:103D6800870E076ED1EC06F000C0B3F701C0B4F7B8
:103D780002C0B5F703C0B6F724C600F00AEC11F08C
:103D8800B3C704F0B4C705F0B5C706F0B6C707F067
:103D980054EC02F000C0A1F301C0A2F302C0A3F3E7
:103DA80003C0A4F3000E046E000E056E000E066E2E
:103DB8008E0E076E64EC07F0000ED8B0010E006E90
:103DC80000521AE0000E046E000E056E000E066E1C
:103DD8008F0E076EA1C300F0A2C301F0A3C302F0C7
:103DE800A4C303F026EC05F000C0A1F301C0A2F3C0
:103DF80002C0A3F303C0A4F3000E0801386F000E3D
:103E0800396F000E3A6F800E3B6F49C600F04AC604
:103E180001F0F1EC09F000C03CF801C03DF802C027
:103E28003EF803C03FF819EC11F000C0B3F701C029
:103E3800B4F702C0B5F703C0B6F7000E386F000E2E
:103E4800396F000E3A6F800E3B6F04013951030839
:103E5800006E3AC401F0000E0156F1EC09F000C002
:103E68003CF801C03DF802C03EF803C03FF819EC29
:103E780011F0B3C704F0B4C705F0B5C706F0B6C76C
:103E880007F0D1EC06F000C004F001C005F002C054
:103E980006F003C007F0A1C300F0A2C301F0A3C35A
:103EA80002F0A4C303F008EC0BF000C0A1F301C0BA
:103EB800A2F302C0A3F303C0A4F327C600F00AECE0
:103EC80011F0000E046E000E056E000E066E870ED1
:103ED800076ED1EC06F000C0B3F701C0B4F702C01A
:103EE800B5F703C0B6F726C600F00AEC11F0B3C761
:103EF80004F0B4C705F0B5C706F0B6C707F054EC30
:103F080002F000C0A5F301C0A6F302C0A7F303C0E6
:103F1800A8F3000E046E000E056E000E066E8E0EDF
:103F2800076E64EC07F0000ED8B0010E006E005268
:103F38001AE0000E046E000E056E000E066E8F0E5F
:103F4800076EA5C300F0A6C301F0A7C302F0A8C37B
:103F580003F026EC05F000C0A5F301C0A6F302C0EB
:103F6800A7F303C0A8F3000E0801386F000E396FDD
:103F7800000E3A6F800E3B6F42C500F043C501F05A
:103F8800F1EC09F000C03CF801C03DF802C03EF871
:103F980003C03FF819EC11F000C0B3F701C0B4F743
:103FA80002C0B5F703C0B6F7000E386F000E396FC0
:103FB800000E3A6F800E3B6F040139510308006E02
:103FC8003AC401F0000E0156F1EC09F000C03CF8CB
:103FD80001C03DF802C03EF803C03FF819EC11F0EB
:103FE800B3C704F0B4C705F0B5C706F0B6C707F005
:103FF800D1EC06F000C004F001C005F002C006F0E4
:1040080003C007F0A5C300F0A6C301F0A7C302F0E0
:10401800A8C303F008EC0BF000C0A5F301C0A6F399
:1040280002C0A7F303C0A8F3000E0301A1190701FA
:10403800BB6F000E0301A2190701BC6F800E0301BC
:10404800A3190701BD6F000E0301A4190701BE6F74
:10405800A1C338F8A2C339F8A3C33AF8A4C33BF8FC
:10406800000E08013C6F000E3D6F000E3E6F800E83
:104078003F6F19EC11F000C0B7F701C0B8F702C0E4
:10408800B9F703C0BAF7000E006E000E016E000EFD
:10409800026E810E036EA5C304F0A6C305F0A7C384
:1040A80006F0A8C307F0D1EC06F000C0B3F701C0D2
:1040B800B4F702C0B5F703C0B6F797C300F098C3CA
:1040C80001F0F1EC09F000C004F001C005F002C0F5
:1040D80006F003C007F044C500F045C501F046C529
:1040E80002F047C503F026EC05F0B3C704F0B4C7E7
:1040F80005F0B5C706F0B6C707F0D1EC06F000C06A
:1041080004F001C005F002C006F003C007F0B7C70D
:1041180000F0B8C701F0B9C702F0BAC703F026EC3F
:1041280005F000C038F801C039F802C03AF803C0F9
:104138003BF862EC0FF0BBC704F0BCC705F0BDC785
:1041480006F0BEC707F054EC02F000C0B3F701C098
:10415800B4F702C0B5F703C0B6F7000E006E000E44
:10416800016E000E026E800E036EA5C304F0A6C396
:1041780005F0A7C306F0A8C307F0D1EC06F000C00D
:1041880004F001C005F002C006F003C007F0B3C791
:1041980000F0B4C701F0B5C702F0B6C703F008ECE9
:1041A8000BF0000E046E000E056E480E066E830EB0
:1041B800076E54EC02F000C09DF301C09EF302C0EC
:0841C8009FF303C0A0F31200F5
:1041D0001ED0A6C7B3F7A7C7B4F7A8C7B5F711ECA9
:1041E00015F020D0A6C7B3F7A7C7B4F7A8C7B5F78F
:1041F0003DEC14F017D0A6C7B3F7A7C7B4F7A8C70C
:10420000B5F769EC13F00ED0010E006E0BD007016C
:10421000A551000ADEE0A551010AE4E0A551020A19
:06422000EAE0F2D71200F3
:104226000701A56B49EC12F0D0EC12F06AEC12F023
:10423600A5C701F00701A52B0150100803E2010EE6
:10424600006E21D075EC10F0000E0014036E0150C4
:10425600040B046E0A0E026E03C000F004C001F0E7
:10426600025005E001320032019EFF0FFAD70050DE
:104276000110D8E0FEEC15F010DCBBDC99EC1CF06C
:0842860053EC16F0006A12006F
:10428E002FD0A6C7B3F7A7C7B4F7A8C7B5F7A9C766
:10429E00B6F7BBEC13F032D0A6C7B3F7A7C7B4F787
:1042AE00A8C7B5F7A9C7B6F7EDEC12F027D0A6C789
:1042BE00B3F7A7C7B4F7A8C7B5F7A9C7B6F765ECA4
:1042CE0015F01CD0A6C7B3F7A7C7B4F7A8C7B5F7A4
:1042DE00A9C7B6F78FEC14F011D0010E006E0ED0F8
:1042EE000701A551000ACDE0A551010AD5E0A5515F
:0E42FE00020ADDE0A551100AE5E0EFD712003C
:10430C000701B16BB26BA5C7ADF7A6C7AEF7A7C7D0
:10431C00AFF7A8C7B0F7B051FF0A08E1AF51FF0AD9
:10432C0005E1AE51FF0A02E1AD51FF0A0DE1A9C74B
:10433C00B3F7AAC7B4F7150EB56F000EB66FDAEC6B
:10434C001CF0030E006EF1D1010EAB6FAFAF0ED0AF
:10435C00800EAF19006E00C0AFF7AB2BA9C7E1FF01
:10436C00AAC7E2FF2D0EE66EA94BAA2B000E006E1B
:10437C00B01908E10050AF1905E10050AE1902E187
:10438C00AD51000A0CE1A9C7B3F7AAC7B4F7210EC7
:10439C00B56F000EB66FDAEC1CF0006AC6D1B051E6
:1043AC00FF0A08E1AF51000A05E1AE51000A02E133
:1043BC00AD51000A0DE1A9C7B3F7AAC7B4F71D0E9A
:1043CC00B56F000EB66FDAEC1CF0ABC700F0ADD1D8
:1043DC00000E046E000E056E000E066E7F0E076E4C
:1043EC00ADC700F0AEC701F0AFC702F0B0C703F025
:1043FC0064EC07F0010ED8B0000E006E00521CE009
:10440C00ADC700F0AEC701F0AFC702F0B0C703F004
:10441C00000E046E000E056E200E066E820E076EE8
:10442C00D1EC06F000C0ADF701C0AEF702C0AFF79B
:10443C0003C0B0F7B207CCD7000E046E000E056EA9
:10444C00200E066E820E076EADC700F0AEC701F0EF
:10445C00AFC702F0B0C703F064EC07F0000ED8B0A1
:10446C00010E006E00521CE0ADC700F0AEC701F0AB
:10447C00AFC702F0B0C703F0CD0E046ECC0E056EC4
:10448C004C0E066E7B0E076ED1EC06F000C0ADF73D
:10449C0001C0AEF702C0AFF703C0B0F7B22BCCD758
:1044AC00FF0EAD15086EFF0EAE15096E7F0EAF1523
:1044BC000A6E000EB0150B6E08C004F009C005F0B2
:1044CC000AC006F00BC007F0043604900536063619
:1044DC000736000EAD15006E000EAE15016E000E07
:1044EC00AF15026EFF0EB015036E00C0ADF701C024
:1044FC00AEF702C0AFF703C0B0F70450AD11006EB9
:10450C000550AE11016E0650AF11026E0750B0117E
:10451C00036E00C0ADF701C0AEF702C0AFF703C029
:10452C00B0F77F0EB05D006E00C0ACF7010EB06F3F
:10453C0000C004F0ADC700F0AEC701F0AFC702F089
:10454C00B0C703F0045007E0003600900136023685
:10455C000336FF0FF8D700C0ADF701C0AEF702C0AD
:10456C00AFF703C0B0F7A9C7E1FFAAC7E2FFB0518C
:10457C00300FE66EA94BAA2B800EB219006E800E7E
:10458C00010A005C08E3800E060A006E800EB21968
:10459C00005C01E30AD0A9C7E1FFAAC7E2FF2E0E17
:1045AC00E66EA94BAA2B010EB16F060EAC6FAC5187
:1045BC00000A54E0B06BADC700F0AEC701F0AFC756
:1045CC0002F0B0C703F00036009001360236033615
:1045DC0000360090013602360336AD510026AE513E
:1045EC000122AF510222B051032200C0ADF701C02D
:1045FC00AEF702C0AFF703C0B0F7ADC700F0AEC75F
:10460C0001F0AFC702F0B0C703F0003600900136DE
:10461C000236033600C0ADF701C0AEF702C0AFF7EB
:10462C0003C0B0F7A9C7E1FFAAC7E2FFB051300F32
:10463C00E66EA94BAA2BB151000A0EE1B207B2519A
:10464C00000A0AE1A9C7E1FFAAC7E2FF2E0EE66E37
:10465C00A94BAA2B010EB16FAC07A9D7FF0EA92548
:10466C00E96EFF0EAA21EA6EEE50300A05E1010E4A
:10467C00A95F000EAA5BF2D7FF0EA925E96EFF0E0B
:10468C00AA21EA6EEE502E0A04E1010EA95F000E7B
:10469C00AA5BB251000A43E0A9C7E1FFAAC7E2FF37
:1046AC00650EE66EA94BAA2B800EB219006E800E19
:1046BC00000A005C0BE2A9C7E1FFAAC7E2FF2D0EBE
:1046CC00E66EA94BAA2BB2510008B26FB2C7ACF779
:1046DC00800E090A006E800EB219005C0FE20A0E01
:1046EC00046EACC700F001EC1DF0A9C7E1FFAAC72E
:1046FC00E2FF0050300FE66EA94BAA2B0A0E046E97
:10470C00ACC700F001EC1DF008C000F0A9C7E1FF38
:10471C00AAC7E2FF0050300FE66EA94BAA2BA9C71F
:0C472C00E1FFAAC7E2FFE66A006A120083
:10473800ABC73BF4ACC748F6A8C7B3F7A9C7B4F7EB
:10474800AAC7B5F7E1EC11F0A5C7B3F7A6C7B4F748
:0A475800A7C7B5F7E0EC11F012005E
:104762000701A76BA86BA5C703F0A6C704F0A5C7EE
:1047720005F0A6C706F003C0E9FF04C0EAFFEE5049
:10478200200A04E1A751A81101E110D0010EA76F80
:10479200000EA86F03C0E9FF04C0EAFF05C0E1FFF5
:1047A20006C0E2FFEECFE6FF054A062A03C001F08B
:1047B20004C002F0034A042A01C0E9FF02C0EAFF72
:1047C200EE50000AD8E1A5C700F0A6C701F012001A
:1047D2000701A66BA5C760F049EC12F0D0EC12F00D
:1047E2006AEC12F0A6C701F00701A62B01501008CF
:1047F20003E2010E006E19D075EC10F0000E0014E9
:10480200036E0150040B046E0A0E026E03C000F028
:1048120004C001F0025005E001320032019EFF0F98
:0C482200FAD700500110D8E0006A120024
:10482E00A5C7A8F7A6C7A9F70D0E0701AA6F0A0E0E
:10483E00AB6F3AD0A8C7B3F7A9C7B4F787EC1CF093
:10484E003ED0A8C7E9FFA9C7EAFFEE520AE0A8C703
:10485E00B3F7A9C7B4F787EC1CF00701A84BA92B37
:10486E00F0D72DD0A8C7E9FFA9C7EAFFEE520AE09C
:10487E00A8C7B3F7A9C7B4F787EC1CF00701A84B7C
:10488E00A92BF0D70701AA0EB36F070EB46F87ECF2
:10489E001CF0AB0E0701B36F070EB46F87EC1CF064
:1048AE000ED0060E006E0CD00701A751000AC2E012
:1048BE00A751010AC6E0A751020AD4E0F2D7006A56
:0248CE001200D6
:1048D000A5C7B3F7A6C7B4F73C0E0701B56F040E22
:1048E000B66F000EB76F010EB86F2FEC16F0120006
:1048F0000701A56BC30EA66F4B0EA76F000EA86F26
:1049000067DC100E0701A56F000EA66FC20EA76F21
:10491000010EA86F000EA96FBADC090E0B6E1E0EF9
:104920000C6EE40E0D6E0D2EFED70C2EFCD70B2E4A
:06493000FAD7000012009E
:104936000900F5CFE6FF0006FBE10106F9E11200EA
:104946006FDC010E001805E08B0EA56F060EA66F34
:10495600BCDFA36B040EA35D4EE2A46B100EA45D38
:1049660040E2A4C700F00036009000360090A35144
:104976000024036E03C000F0000E016E00360090A6
:1049860001360036009001368B0E0024E96E060EC5
:104996000120EA6EEECFA5F7EECFA6F7EECFA7F78A
:1049A600EECFA8F74B0EA96F060EAA6FACDC4B0E26
:1049B600A56F060EA66FD2DE0601516B4B0E0701E0
:1049C600A56F060EA66F010EA76F2EDF230E070139
:1049D600A56F000EA66F010EA76F26DF0701A42B99
:1049E600BDD7480EA56F000EA66F020EA76F1CDF7F
:1049F6000701A32BAFD74A0EA56F000EA66F020EB6
:104A0600A76F12DF440E0701A56F000EA66F020EF8
:104A1600A76F0ADF460E0701A56F000EA66F020EEE
:104A2600A76F02DF290E0B6E960E0C6E7F0E0D6EB3
:0E4A36000D2EFED70C2EFCD70B2EFAD7120039
:104A4400B80E0701A56F4A0EA66F000EA76FAF0E32
:104A5400A86F4B0EA96F000EAA6F500EAB6F600EBD
:104A6400AC6F68DE090E0B6E1E0E0C6EE40E0D6E3E
:104A74000D2EFED70C2EFCD70B2EFAD70000100EED
:104A8400A56FA5DE4C0E0701A56F000EA66F020EE2
:104A9400A76FCBDE250E0701A56F000EA66F020ED1
:064AA400A76FC3DE120043
:0E4AAA00E6EC25F020DFC9DF49DFFED7FFD79D
:104BCC0010EE15F04B0E006E010E016E180EF66E07
:104BDC004B0EF76E000EF86E9BEC24F010EE61F0AD
:104BEC00040E006E010E016EC70EF66E4B0EF76EC4
:0A4BFC00000EF86E9BEC24F012008E
:104AB800EE0164080A026408FC01640898016408AD
:104AC8008A016408A6016408C2016408B401640884
:104AD8006C0264085E0264085002640826026408D6
:104AE800FC0F00003A12000004110000FA10000048
:104AF800721300008A120000861300008012000062
:104B08004E12000058120000360900006212000020
:044B18004E614E009C
:044B1C000000000095
:044B2000494E4600B4
:024B240030005F
:024B2600090084
:104B2800495220475249442054454D50455241541A
:0F4B3800555245204D45535552454D454E54005D
:024B470020004C
:024B490020004A
:024B4B00200048
:024B4D00200046
:104B4F004952204752494420494E495449414C4902
:044B5F005A4544006F
:104B63000000007F1872317EF0FD757C4758637A30
:104B730058951D7882C42E75A8782172EF93006F23
:084B8300A092276B465615684D
:104B8B00FFE65B5DC4FF7F7E80EFFF7D90E1297DBB
:104B9B00EC82F67C82AD2B7C0E3CC37B87D1137AE7
:044BAB004178D37703
:104BAF00A6110000F80F0000A00F0000160C5E0801
:044BBF00DA0C5E08A6
:044BC300A0860100C7
:044BC70000000000EA
:020000040030CA
:0E00000015137F7CF98B91FFFFC0FFE0FF40DE
:00000001FF
